{
	"SimpleContract.sol": {
		"SimpleTransfer": {
			"abi": [
				{
					"inputs": [
						{
							"internalType": "address",
							"name": "_accountB",
							"type": "address"
						}
					],
					"stateMutability": "nonpayable",
					"type": "constructor"
				},
				{
					"anonymous": false,
					"inputs": [
						{
							"indexed": true,
							"internalType": "address",
							"name": "from",
							"type": "address"
						},
						{
							"indexed": true,
							"internalType": "address",
							"name": "to",
							"type": "address"
						},
						{
							"indexed": false,
							"internalType": "uint256",
							"name": "amount",
							"type": "uint256"
						}
					],
					"name": "Transfer",
					"type": "event"
				},
				{
					"inputs": [],
					"name": "accountA",
					"outputs": [
						{
							"internalType": "address",
							"name": "",
							"type": "address"
						}
					],
					"stateMutability": "view",
					"type": "function"
				},
				{
					"inputs": [],
					"name": "accountB",
					"outputs": [
						{
							"internalType": "address",
							"name": "",
							"type": "address"
						}
					],
					"stateMutability": "view",
					"type": "function"
				},
				{
					"inputs": [],
					"name": "deposit",
					"outputs": [],
					"stateMutability": "payable",
					"type": "function"
				},
				{
					"inputs": [],
					"name": "getBalance",
					"outputs": [
						{
							"internalType": "uint256",
							"name": "",
							"type": "uint256"
						}
					],
					"stateMutability": "view",
					"type": "function"
				},
				{
					"inputs": [
						{
							"internalType": "uint256",
							"name": "amount",
							"type": "uint256"
						}
					],
					"name": "transferToAccountB",
					"outputs": [],
					"stateMutability": "nonpayable",
					"type": "function"
				},
				{
					"inputs": [
						{
							"internalType": "uint256",
							"name": "amount",
							"type": "uint256"
						}
					],
					"name": "withdraw",
					"outputs": [],
					"stateMutability": "nonpayable",
					"type": "function"
				}
			],
			"devdoc": {
				"kind": "dev",
				"methods": {},
				"version": 1
			},
			"evm": {
				"assembly": "    /* \"SimpleContract.sol\":60:1610  contract SimpleTransfer {... */\n  mstore(0x40, 0x80)\n    /* \"SimpleContract.sol\":365:577  constructor(address _accountB) {... */\n  callvalue\n  dup1\n  iszero\n  tag_1\n  jumpi\n  0x00\n  dup1\n  revert\ntag_1:\n  pop\n  mload(0x40)\n  sub(codesize, bytecodeSize)\n  dup1\n  bytecodeSize\n  dup4\n  codecopy\n  dup2\n  dup2\n  add\n  0x40\n  mstore\n  dup2\n  add\n  swap1\n  tag_2\n  swap2\n  swap1\n  tag_3\n  jump\t// in\ntag_2:\n    /* \"SimpleContract.sol\":418:428  msg.sender */\n  caller\n    /* \"SimpleContract.sol\":407:415  accountA */\n  0x00\n  dup1\n    /* \"SimpleContract.sol\":407:428  accountA = msg.sender */\n  0x0100\n  exp\n  dup2\n  sload\n  dup2\n  0xffffffffffffffffffffffffffffffffffffffff\n  mul\n  not\n  and\n  swap1\n  dup4\n  0xffffffffffffffffffffffffffffffffffffffff\n  and\n  mul\n  or\n  swap1\n  sstore\n  pop\n    /* \"SimpleContract.sol\":507:516  _accountB */\n  dup1\n    /* \"SimpleContract.sol\":496:504  accountB */\n  0x01\n  0x00\n    /* \"SimpleContract.sol\":496:516  accountB = _accountB */\n  0x0100\n  exp\n  dup2\n  sload\n  dup2\n  0xffffffffffffffffffffffffffffffffffffffff\n  mul\n  not\n  and\n  swap1\n  dup4\n  0xffffffffffffffffffffffffffffffffffffffff\n  and\n  mul\n  or\n  swap1\n  sstore\n  pop\n    /* \"SimpleContract.sol\":365:577  constructor(address _accountB) {... */\n  pop\n    /* \"SimpleContract.sol\":60:1610  contract SimpleTransfer {... */\n  jump(tag_6)\n    /* \"#utility.yul\":88:205   */\ntag_8:\n    /* \"#utility.yul\":197:198   */\n  0x00\n    /* \"#utility.yul\":194:195   */\n  dup1\n    /* \"#utility.yul\":187:199   */\n  revert\n    /* \"#utility.yul\":334:460   */\ntag_10:\n    /* \"#utility.yul\":371:378   */\n  0x00\n    /* \"#utility.yul\":411:453   */\n  0xffffffffffffffffffffffffffffffffffffffff\n    /* \"#utility.yul\":404:409   */\n  dup3\n    /* \"#utility.yul\":400:454   */\n  and\n    /* \"#utility.yul\":389:454   */\n  swap1\n  pop\n    /* \"#utility.yul\":334:460   */\n  swap2\n  swap1\n  pop\n  jump\t// out\n    /* \"#utility.yul\":466:562   */\ntag_11:\n    /* \"#utility.yul\":503:510   */\n  0x00\n    /* \"#utility.yul\":532:556   */\n  tag_20\n    /* \"#utility.yul\":550:555   */\n  dup3\n    /* \"#utility.yul\":532:556   */\n  tag_10\n  jump\t// in\ntag_20:\n    /* \"#utility.yul\":521:556   */\n  swap1\n  pop\n    /* \"#utility.yul\":466:562   */\n  swap2\n  swap1\n  pop\n  jump\t// out\n    /* \"#utility.yul\":568:690   */\ntag_12:\n    /* \"#utility.yul\":641:665   */\n  tag_22\n    /* \"#utility.yul\":659:664   */\n  dup2\n    /* \"#utility.yul\":641:665   */\n  tag_11\n  jump\t// in\ntag_22:\n    /* \"#utility.yul\":634:639   */\n  dup2\n    /* \"#utility.yul\":631:666   */\n  eq\n    /* \"#utility.yul\":621:684   */\n  tag_23\n  jumpi\n    /* \"#utility.yul\":680:681   */\n  0x00\n    /* \"#utility.yul\":677:678   */\n  dup1\n    /* \"#utility.yul\":670:682   */\n  revert\n    /* \"#utility.yul\":621:684   */\ntag_23:\n    /* \"#utility.yul\":568:690   */\n  pop\n  jump\t// out\n    /* \"#utility.yul\":696:839   */\ntag_13:\n    /* \"#utility.yul\":753:758   */\n  0x00\n    /* \"#utility.yul\":784:790   */\n  dup2\n    /* \"#utility.yul\":778:791   */\n  mload\n    /* \"#utility.yul\":769:791   */\n  swap1\n  pop\n    /* \"#utility.yul\":800:833   */\n  tag_25\n    /* \"#utility.yul\":827:832   */\n  dup2\n    /* \"#utility.yul\":800:833   */\n  tag_12\n  jump\t// in\ntag_25:\n    /* \"#utility.yul\":696:839   */\n  swap3\n  swap2\n  pop\n  pop\n  jump\t// out\n    /* \"#utility.yul\":845:1196   */\ntag_3:\n    /* \"#utility.yul\":915:921   */\n  0x00\n    /* \"#utility.yul\":964:966   */\n  0x20\n    /* \"#utility.yul\":952:961   */\n  dup3\n    /* \"#utility.yul\":943:950   */\n  dup5\n    /* \"#utility.yul\":939:962   */\n  sub\n    /* \"#utility.yul\":935:967   */\n  slt\n    /* \"#utility.yul\":932:1051   */\n  iszero\n  tag_27\n  jumpi\n    /* \"#utility.yul\":970:1049   */\n  tag_28\n  tag_8\n  jump\t// in\ntag_28:\n    /* \"#utility.yul\":932:1051   */\ntag_27:\n    /* \"#utility.yul\":1090:1091   */\n  0x00\n    /* \"#utility.yul\":1115:1179   */\n  tag_29\n    /* \"#utility.yul\":1171:1178   */\n  dup5\n    /* \"#utility.yul\":1162:1168   */\n  dup3\n    /* \"#utility.yul\":1151:1160   */\n  dup6\n    /* \"#utility.yul\":1147:1169   */\n  add\n    /* \"#utility.yul\":1115:1179   */\n  tag_13\n  jump\t// in\ntag_29:\n    /* \"#utility.yul\":1105:1179   */\n  swap2\n  pop\n    /* \"#utility.yul\":1061:1189   */\n  pop\n    /* \"#utility.yul\":845:1196   */\n  swap3\n  swap2\n  pop\n  pop\n  jump\t// out\n    /* \"SimpleContract.sol\":60:1610  contract SimpleTransfer {... */\ntag_6:\n  dataSize(sub_0)\n  dup1\n  dataOffset(sub_0)\n  0x00\n  codecopy\n  0x00\n  return\nstop\n\nsub_0: assembly {\n        /* \"SimpleContract.sol\":60:1610  contract SimpleTransfer {... */\n      mstore(0x40, 0x80)\n      jumpi(tag_1, lt(calldatasize, 0x04))\n      shr(0xe0, calldataload(0x00))\n      dup1\n      0x06867f7d\n      eq\n      tag_2\n      jumpi\n      dup1\n      0x12065fe0\n      eq\n      tag_3\n      jumpi\n      dup1\n      0x2e1a7d4d\n      eq\n      tag_4\n      jumpi\n      dup1\n      0x61a5c7ea\n      eq\n      tag_5\n      jumpi\n      dup1\n      0xd0e30db0\n      eq\n      tag_6\n      jumpi\n      dup1\n      0xecb6af21\n      eq\n      tag_7\n      jumpi\n    tag_1:\n      0x00\n      dup1\n      revert\n        /* \"SimpleContract.sol\":132:155  address public accountA */\n    tag_2:\n      callvalue\n      dup1\n      iszero\n      tag_8\n      jumpi\n      0x00\n      dup1\n      revert\n    tag_8:\n      pop\n      tag_9\n      tag_10\n      jump\t// in\n    tag_9:\n      mload(0x40)\n      tag_11\n      swap2\n      swap1\n      tag_12\n      jump\t// in\n    tag_11:\n      mload(0x40)\n      dup1\n      swap2\n      sub\n      swap1\n      return\n        /* \"SimpleContract.sol\":1254:1353  function getBalance() public view returns (uint256) {... */\n    tag_3:\n      callvalue\n      dup1\n      iszero\n      tag_13\n      jumpi\n      0x00\n      dup1\n      revert\n    tag_13:\n      pop\n      tag_14\n      tag_15\n      jump\t// in\n    tag_14:\n      mload(0x40)\n      tag_16\n      swap2\n      swap1\n      tag_17\n      jump\t// in\n    tag_16:\n      mload(0x40)\n      dup1\n      swap2\n      sub\n      swap1\n      return\n        /* \"SimpleContract.sol\":1437:1607  function withdraw(uint256 amount) public {... */\n    tag_4:\n      callvalue\n      dup1\n      iszero\n      tag_18\n      jumpi\n      0x00\n      dup1\n      revert\n    tag_18:\n      pop\n      tag_19\n      0x04\n      dup1\n      calldatasize\n      sub\n      dup2\n      add\n      swap1\n      tag_20\n      swap2\n      swap1\n      tag_21\n      jump\t// in\n    tag_20:\n      tag_22\n      jump\t// in\n    tag_19:\n      stop\n        /* \"SimpleContract.sol\":820:1192  function transferToAccountB(uint256 amount) public {... */\n    tag_5:\n      callvalue\n      dup1\n      iszero\n      tag_23\n      jumpi\n      0x00\n      dup1\n      revert\n    tag_23:\n      pop\n      tag_24\n      0x04\n      dup1\n      calldatasize\n      sub\n      dup2\n      add\n      swap1\n      tag_25\n      swap2\n      swap1\n      tag_21\n      jump\t// in\n    tag_25:\n      tag_26\n      jump\t// in\n    tag_24:\n      stop\n        /* \"SimpleContract.sol\":639:743  function deposit() public payable {... */\n    tag_6:\n      tag_27\n      tag_28\n      jump\t// in\n    tag_27:\n      stop\n        /* \"SimpleContract.sol\":162:185  address public accountB */\n    tag_7:\n      callvalue\n      dup1\n      iszero\n      tag_29\n      jumpi\n      0x00\n      dup1\n      revert\n    tag_29:\n      pop\n      tag_30\n      tag_31\n      jump\t// in\n    tag_30:\n      mload(0x40)\n      tag_32\n      swap2\n      swap1\n      tag_12\n      jump\t// in\n    tag_32:\n      mload(0x40)\n      dup1\n      swap2\n      sub\n      swap1\n      return\n        /* \"SimpleContract.sol\":132:155  address public accountA */\n    tag_10:\n      0x00\n      dup1\n      sload\n      swap1\n      0x0100\n      exp\n      swap1\n      div\n      0xffffffffffffffffffffffffffffffffffffffff\n      and\n      dup2\n      jump\t// out\n        /* \"SimpleContract.sol\":1254:1353  function getBalance() public view returns (uint256) {... */\n    tag_15:\n        /* \"SimpleContract.sol\":1297:1304  uint256 */\n      0x00\n        /* \"SimpleContract.sol\":1324:1345  address(this).balance */\n      selfbalance\n        /* \"SimpleContract.sol\":1317:1345  return address(this).balance */\n      swap1\n      pop\n        /* \"SimpleContract.sol\":1254:1353  function getBalance() public view returns (uint256) {... */\n      swap1\n      jump\t// out\n        /* \"SimpleContract.sol\":1437:1607  function withdraw(uint256 amount) public {... */\n    tag_22:\n        /* \"SimpleContract.sol\":1511:1519  accountB */\n      0x01\n      0x00\n      swap1\n      sload\n      swap1\n      0x0100\n      exp\n      swap1\n      div\n      0xffffffffffffffffffffffffffffffffffffffff\n      and\n        /* \"SimpleContract.sol\":1497:1519  msg.sender == accountB */\n      0xffffffffffffffffffffffffffffffffffffffff\n      and\n        /* \"SimpleContract.sol\":1497:1507  msg.sender */\n      caller\n        /* \"SimpleContract.sol\":1497:1519  msg.sender == accountB */\n      0xffffffffffffffffffffffffffffffffffffffff\n      and\n      eq\n        /* \"SimpleContract.sol\":1489:1554  require(msg.sender == accountB, \"Solo la cuenta B puede retirar\") */\n      tag_35\n      jumpi\n      mload(0x40)\n      0x08c379a000000000000000000000000000000000000000000000000000000000\n      dup2\n      mstore\n      0x04\n      add\n      tag_36\n      swap1\n      tag_37\n      jump\t// in\n    tag_36:\n      mload(0x40)\n      dup1\n      swap2\n      sub\n      swap1\n      revert\n    tag_35:\n        /* \"SimpleContract.sol\":1573:1581  accountB */\n      0x01\n      0x00\n      swap1\n      sload\n      swap1\n      0x0100\n      exp\n      swap1\n      div\n      0xffffffffffffffffffffffffffffffffffffffff\n      and\n        /* \"SimpleContract.sol\":1565:1591  payable(accountB).transfer */\n      0xffffffffffffffffffffffffffffffffffffffff\n      and\n        /* \"SimpleContract.sol\":1565:1599  payable(accountB).transfer(amount) */\n      0x08fc\n        /* \"SimpleContract.sol\":1592:1598  amount */\n      dup3\n        /* \"SimpleContract.sol\":1565:1599  payable(accountB).transfer(amount) */\n      swap1\n      dup2\n      iszero\n      mul\n      swap1\n      mload(0x40)\n      0x00\n      mload(0x40)\n      dup1\n      dup4\n      sub\n      dup2\n      dup6\n      dup9\n      dup9\n      call\n      swap4\n      pop\n      pop\n      pop\n      pop\n      iszero\n      dup1\n      iszero\n      tag_39\n      jumpi\n      returndatasize\n      0x00\n      dup1\n      returndatacopy\n      revert(0x00, returndatasize)\n    tag_39:\n      pop\n        /* \"SimpleContract.sol\":1437:1607  function withdraw(uint256 amount) public {... */\n      pop\n      jump\t// out\n        /* \"SimpleContract.sol\":820:1192  function transferToAccountB(uint256 amount) public {... */\n    tag_26:\n        /* \"SimpleContract.sol\":904:912  accountA */\n      0x00\n      dup1\n      sload\n      swap1\n      0x0100\n      exp\n      swap1\n      div\n      0xffffffffffffffffffffffffffffffffffffffff\n      and\n        /* \"SimpleContract.sol\":890:912  msg.sender == accountA */\n      0xffffffffffffffffffffffffffffffffffffffff\n      and\n        /* \"SimpleContract.sol\":890:900  msg.sender */\n      caller\n        /* \"SimpleContract.sol\":890:912  msg.sender == accountA */\n      0xffffffffffffffffffffffffffffffffffffffff\n      and\n      eq\n        /* \"SimpleContract.sol\":882:950  require(msg.sender == accountA, \"Solo la cuenta A puede transferir\") */\n      tag_41\n      jumpi\n      mload(0x40)\n      0x08c379a000000000000000000000000000000000000000000000000000000000\n      dup2\n      mstore\n      0x04\n      add\n      tag_42\n      swap1\n      tag_43\n      jump\t// in\n    tag_42:\n      mload(0x40)\n      dup1\n      swap2\n      sub\n      swap1\n      revert\n    tag_41:\n        /* \"SimpleContract.sol\":994:1000  amount */\n      dup1\n        /* \"SimpleContract.sol\":969:990  address(this).balance */\n      selfbalance\n        /* \"SimpleContract.sol\":969:1000  address(this).balance >= amount */\n      lt\n      iszero\n        /* \"SimpleContract.sol\":961:1043  require(address(this).balance >= amount, \"No hay suficiente saldo en el contrato\") */\n      tag_44\n      jumpi\n      mload(0x40)\n      0x08c379a000000000000000000000000000000000000000000000000000000000\n      dup2\n      mstore\n      0x04\n      add\n      tag_45\n      swap1\n      tag_46\n      jump\t// in\n    tag_45:\n      mload(0x40)\n      dup1\n      swap2\n      sub\n      swap1\n      revert\n    tag_44:\n        /* \"SimpleContract.sol\":1064:1072  accountB */\n      0x01\n      0x00\n      swap1\n      sload\n      swap1\n      0x0100\n      exp\n      swap1\n      div\n      0xffffffffffffffffffffffffffffffffffffffff\n      and\n        /* \"SimpleContract.sol\":1056:1082  payable(accountB).transfer */\n      0xffffffffffffffffffffffffffffffffffffffff\n      and\n        /* \"SimpleContract.sol\":1056:1090  payable(accountB).transfer(amount) */\n      0x08fc\n        /* \"SimpleContract.sol\":1083:1089  amount */\n      dup3\n        /* \"SimpleContract.sol\":1056:1090  payable(accountB).transfer(amount) */\n      swap1\n      dup2\n      iszero\n      mul\n      swap1\n      mload(0x40)\n      0x00\n      mload(0x40)\n      dup1\n      dup4\n      sub\n      dup2\n      dup6\n      dup9\n      dup9\n      call\n      swap4\n      pop\n      pop\n      pop\n      pop\n      iszero\n      dup1\n      iszero\n      tag_48\n      jumpi\n      returndatasize\n      0x00\n      dup1\n      returndatacopy\n      revert(0x00, returndatasize)\n    tag_48:\n      pop\n        /* \"SimpleContract.sol\":1167:1175  accountB */\n      0x01\n      0x00\n      swap1\n      sload\n      swap1\n      0x0100\n      exp\n      swap1\n      div\n      0xffffffffffffffffffffffffffffffffffffffff\n      and\n        /* \"SimpleContract.sol\":1148:1184  Transfer(accountA, accountB, amount) */\n      0xffffffffffffffffffffffffffffffffffffffff\n      and\n        /* \"SimpleContract.sol\":1157:1165  accountA */\n      0x00\n      dup1\n      sload\n      swap1\n      0x0100\n      exp\n      swap1\n      div\n      0xffffffffffffffffffffffffffffffffffffffff\n      and\n        /* \"SimpleContract.sol\":1148:1184  Transfer(accountA, accountB, amount) */\n      0xffffffffffffffffffffffffffffffffffffffff\n      and\n      0xddf252ad1be2c89b69c2b068fc378daa952ba7f163c4a11628f55a4df523b3ef\n        /* \"SimpleContract.sol\":1177:1183  amount */\n      dup4\n        /* \"SimpleContract.sol\":1148:1184  Transfer(accountA, accountB, amount) */\n      mload(0x40)\n      tag_49\n      swap2\n      swap1\n      tag_17\n      jump\t// in\n    tag_49:\n      mload(0x40)\n      dup1\n      swap2\n      sub\n      swap1\n      log3\n        /* \"SimpleContract.sol\":820:1192  function transferToAccountB(uint256 amount) public {... */\n      pop\n      jump\t// out\n        /* \"SimpleContract.sol\":639:743  function deposit() public payable {... */\n    tag_28:\n        /* \"SimpleContract.sol\":704:705  0 */\n      0x00\n        /* \"SimpleContract.sol\":692:701  msg.value */\n      callvalue\n        /* \"SimpleContract.sol\":692:705  msg.value > 0 */\n      gt\n        /* \"SimpleContract.sol\":684:735  require(msg.value > 0, \"Debe enviar algo de Ether\") */\n      tag_51\n      jumpi\n      mload(0x40)\n      0x08c379a000000000000000000000000000000000000000000000000000000000\n      dup2\n      mstore\n      0x04\n      add\n      tag_52\n      swap1\n      tag_53\n      jump\t// in\n    tag_52:\n      mload(0x40)\n      dup1\n      swap2\n      sub\n      swap1\n      revert\n    tag_51:\n        /* \"SimpleContract.sol\":639:743  function deposit() public payable {... */\n      jump\t// out\n        /* \"SimpleContract.sol\":162:185  address public accountB */\n    tag_31:\n      0x01\n      0x00\n      swap1\n      sload\n      swap1\n      0x0100\n      exp\n      swap1\n      div\n      0xffffffffffffffffffffffffffffffffffffffff\n      and\n      dup2\n      jump\t// out\n        /* \"#utility.yul\":7:133   */\n    tag_54:\n        /* \"#utility.yul\":44:51   */\n      0x00\n        /* \"#utility.yul\":84:126   */\n      0xffffffffffffffffffffffffffffffffffffffff\n        /* \"#utility.yul\":77:82   */\n      dup3\n        /* \"#utility.yul\":73:127   */\n      and\n        /* \"#utility.yul\":62:127   */\n      swap1\n      pop\n        /* \"#utility.yul\":7:133   */\n      swap2\n      swap1\n      pop\n      jump\t// out\n        /* \"#utility.yul\":139:235   */\n    tag_55:\n        /* \"#utility.yul\":176:183   */\n      0x00\n        /* \"#utility.yul\":205:229   */\n      tag_76\n        /* \"#utility.yul\":223:228   */\n      dup3\n        /* \"#utility.yul\":205:229   */\n      tag_54\n      jump\t// in\n    tag_76:\n        /* \"#utility.yul\":194:229   */\n      swap1\n      pop\n        /* \"#utility.yul\":139:235   */\n      swap2\n      swap1\n      pop\n      jump\t// out\n        /* \"#utility.yul\":241:359   */\n    tag_56:\n        /* \"#utility.yul\":328:352   */\n      tag_78\n        /* \"#utility.yul\":346:351   */\n      dup2\n        /* \"#utility.yul\":328:352   */\n      tag_55\n      jump\t// in\n    tag_78:\n        /* \"#utility.yul\":323:326   */\n      dup3\n        /* \"#utility.yul\":316:353   */\n      mstore\n        /* \"#utility.yul\":241:359   */\n      pop\n      pop\n      jump\t// out\n        /* \"#utility.yul\":365:587   */\n    tag_12:\n        /* \"#utility.yul\":458:462   */\n      0x00\n        /* \"#utility.yul\":496:498   */\n      0x20\n        /* \"#utility.yul\":485:494   */\n      dup3\n        /* \"#utility.yul\":481:499   */\n      add\n        /* \"#utility.yul\":473:499   */\n      swap1\n      pop\n        /* \"#utility.yul\":509:580   */\n      tag_80\n        /* \"#utility.yul\":577:578   */\n      0x00\n        /* \"#utility.yul\":566:575   */\n      dup4\n        /* \"#utility.yul\":562:579   */\n      add\n        /* \"#utility.yul\":553:559   */\n      dup5\n        /* \"#utility.yul\":509:580   */\n      tag_56\n      jump\t// in\n    tag_80:\n        /* \"#utility.yul\":365:587   */\n      swap3\n      swap2\n      pop\n      pop\n      jump\t// out\n        /* \"#utility.yul\":593:670   */\n    tag_57:\n        /* \"#utility.yul\":630:637   */\n      0x00\n        /* \"#utility.yul\":659:664   */\n      dup2\n        /* \"#utility.yul\":648:664   */\n      swap1\n      pop\n        /* \"#utility.yul\":593:670   */\n      swap2\n      swap1\n      pop\n      jump\t// out\n        /* \"#utility.yul\":676:794   */\n    tag_58:\n        /* \"#utility.yul\":763:787   */\n      tag_83\n        /* \"#utility.yul\":781:786   */\n      dup2\n        /* \"#utility.yul\":763:787   */\n      tag_57\n      jump\t// in\n    tag_83:\n        /* \"#utility.yul\":758:761   */\n      dup3\n        /* \"#utility.yul\":751:788   */\n      mstore\n        /* \"#utility.yul\":676:794   */\n      pop\n      pop\n      jump\t// out\n        /* \"#utility.yul\":800:1022   */\n    tag_17:\n        /* \"#utility.yul\":893:897   */\n      0x00\n        /* \"#utility.yul\":931:933   */\n      0x20\n        /* \"#utility.yul\":920:929   */\n      dup3\n        /* \"#utility.yul\":916:934   */\n      add\n        /* \"#utility.yul\":908:934   */\n      swap1\n      pop\n        /* \"#utility.yul\":944:1015   */\n      tag_85\n        /* \"#utility.yul\":1012:1013   */\n      0x00\n        /* \"#utility.yul\":1001:1010   */\n      dup4\n        /* \"#utility.yul\":997:1014   */\n      add\n        /* \"#utility.yul\":988:994   */\n      dup5\n        /* \"#utility.yul\":944:1015   */\n      tag_58\n      jump\t// in\n    tag_85:\n        /* \"#utility.yul\":800:1022   */\n      swap3\n      swap2\n      pop\n      pop\n      jump\t// out\n        /* \"#utility.yul\":1109:1226   */\n    tag_60:\n        /* \"#utility.yul\":1218:1219   */\n      0x00\n        /* \"#utility.yul\":1215:1216   */\n      dup1\n        /* \"#utility.yul\":1208:1220   */\n      revert\n        /* \"#utility.yul\":1355:1477   */\n    tag_62:\n        /* \"#utility.yul\":1428:1452   */\n      tag_90\n        /* \"#utility.yul\":1446:1451   */\n      dup2\n        /* \"#utility.yul\":1428:1452   */\n      tag_57\n      jump\t// in\n    tag_90:\n        /* \"#utility.yul\":1421:1426   */\n      dup2\n        /* \"#utility.yul\":1418:1453   */\n      eq\n        /* \"#utility.yul\":1408:1471   */\n      tag_91\n      jumpi\n        /* \"#utility.yul\":1467:1468   */\n      0x00\n        /* \"#utility.yul\":1464:1465   */\n      dup1\n        /* \"#utility.yul\":1457:1469   */\n      revert\n        /* \"#utility.yul\":1408:1471   */\n    tag_91:\n        /* \"#utility.yul\":1355:1477   */\n      pop\n      jump\t// out\n        /* \"#utility.yul\":1483:1622   */\n    tag_63:\n        /* \"#utility.yul\":1529:1534   */\n      0x00\n        /* \"#utility.yul\":1567:1573   */\n      dup2\n        /* \"#utility.yul\":1554:1574   */\n      calldataload\n        /* \"#utility.yul\":1545:1574   */\n      swap1\n      pop\n        /* \"#utility.yul\":1583:1616   */\n      tag_93\n        /* \"#utility.yul\":1610:1615   */\n      dup2\n        /* \"#utility.yul\":1583:1616   */\n      tag_62\n      jump\t// in\n    tag_93:\n        /* \"#utility.yul\":1483:1622   */\n      swap3\n      swap2\n      pop\n      pop\n      jump\t// out\n        /* \"#utility.yul\":1628:1957   */\n    tag_21:\n        /* \"#utility.yul\":1687:1693   */\n      0x00\n        /* \"#utility.yul\":1736:1738   */\n      0x20\n        /* \"#utility.yul\":1724:1733   */\n      dup3\n        /* \"#utility.yul\":1715:1722   */\n      dup5\n        /* \"#utility.yul\":1711:1734   */\n      sub\n        /* \"#utility.yul\":1707:1739   */\n      slt\n        /* \"#utility.yul\":1704:1823   */\n      iszero\n      tag_95\n      jumpi\n        /* \"#utility.yul\":1742:1821   */\n      tag_96\n      tag_60\n      jump\t// in\n    tag_96:\n        /* \"#utility.yul\":1704:1823   */\n    tag_95:\n        /* \"#utility.yul\":1862:1863   */\n      0x00\n        /* \"#utility.yul\":1887:1940   */\n      tag_97\n        /* \"#utility.yul\":1932:1939   */\n      dup5\n        /* \"#utility.yul\":1923:1929   */\n      dup3\n        /* \"#utility.yul\":1912:1921   */\n      dup6\n        /* \"#utility.yul\":1908:1930   */\n      add\n        /* \"#utility.yul\":1887:1940   */\n      tag_63\n      jump\t// in\n    tag_97:\n        /* \"#utility.yul\":1877:1940   */\n      swap2\n      pop\n        /* \"#utility.yul\":1833:1950   */\n      pop\n        /* \"#utility.yul\":1628:1957   */\n      swap3\n      swap2\n      pop\n      pop\n      jump\t// out\n        /* \"#utility.yul\":1963:2132   */\n    tag_64:\n        /* \"#utility.yul\":2047:2058   */\n      0x00\n        /* \"#utility.yul\":2081:2087   */\n      dup3\n        /* \"#utility.yul\":2076:2079   */\n      dup3\n        /* \"#utility.yul\":2069:2088   */\n      mstore\n        /* \"#utility.yul\":2121:2125   */\n      0x20\n        /* \"#utility.yul\":2116:2119   */\n      dup3\n        /* \"#utility.yul\":2112:2126   */\n      add\n        /* \"#utility.yul\":2097:2126   */\n      swap1\n      pop\n        /* \"#utility.yul\":1963:2132   */\n      swap3\n      swap2\n      pop\n      pop\n      jump\t// out\n        /* \"#utility.yul\":2138:2318   */\n    tag_65:\n        /* \"#utility.yul\":2278:2310   */\n      0x536f6c6f206c61206375656e7461204220707565646520726574697261720000\n        /* \"#utility.yul\":2274:2275   */\n      0x00\n        /* \"#utility.yul\":2266:2272   */\n      dup3\n        /* \"#utility.yul\":2262:2276   */\n      add\n        /* \"#utility.yul\":2255:2311   */\n      mstore\n        /* \"#utility.yul\":2138:2318   */\n      pop\n      jump\t// out\n        /* \"#utility.yul\":2324:2690   */\n    tag_66:\n        /* \"#utility.yul\":2466:2469   */\n      0x00\n        /* \"#utility.yul\":2487:2554   */\n      tag_101\n        /* \"#utility.yul\":2551:2553   */\n      0x1e\n        /* \"#utility.yul\":2546:2549   */\n      dup4\n        /* \"#utility.yul\":2487:2554   */\n      tag_64\n      jump\t// in\n    tag_101:\n        /* \"#utility.yul\":2480:2554   */\n      swap2\n      pop\n        /* \"#utility.yul\":2563:2656   */\n      tag_102\n        /* \"#utility.yul\":2652:2655   */\n      dup3\n        /* \"#utility.yul\":2563:2656   */\n      tag_65\n      jump\t// in\n    tag_102:\n        /* \"#utility.yul\":2681:2683   */\n      0x20\n        /* \"#utility.yul\":2676:2679   */\n      dup3\n        /* \"#utility.yul\":2672:2684   */\n      add\n        /* \"#utility.yul\":2665:2684   */\n      swap1\n      pop\n        /* \"#utility.yul\":2324:2690   */\n      swap2\n      swap1\n      pop\n      jump\t// out\n        /* \"#utility.yul\":2696:3115   */\n    tag_37:\n        /* \"#utility.yul\":2862:2866   */\n      0x00\n        /* \"#utility.yul\":2900:2902   */\n      0x20\n        /* \"#utility.yul\":2889:2898   */\n      dup3\n        /* \"#utility.yul\":2885:2903   */\n      add\n        /* \"#utility.yul\":2877:2903   */\n      swap1\n      pop\n        /* \"#utility.yul\":2949:2958   */\n      dup2\n        /* \"#utility.yul\":2943:2947   */\n      dup2\n        /* \"#utility.yul\":2939:2959   */\n      sub\n        /* \"#utility.yul\":2935:2936   */\n      0x00\n        /* \"#utility.yul\":2924:2933   */\n      dup4\n        /* \"#utility.yul\":2920:2937   */\n      add\n        /* \"#utility.yul\":2913:2960   */\n      mstore\n        /* \"#utility.yul\":2977:3108   */\n      tag_104\n        /* \"#utility.yul\":3103:3107   */\n      dup2\n        /* \"#utility.yul\":2977:3108   */\n      tag_66\n      jump\t// in\n    tag_104:\n        /* \"#utility.yul\":2969:3108   */\n      swap1\n      pop\n        /* \"#utility.yul\":2696:3115   */\n      swap2\n      swap1\n      pop\n      jump\t// out\n        /* \"#utility.yul\":3121:3341   */\n    tag_67:\n        /* \"#utility.yul\":3261:3295   */\n      0x536f6c6f206c61206375656e74612041207075656465207472616e7366657269\n        /* \"#utility.yul\":3257:3258   */\n      0x00\n        /* \"#utility.yul\":3249:3255   */\n      dup3\n        /* \"#utility.yul\":3245:3259   */\n      add\n        /* \"#utility.yul\":3238:3296   */\n      mstore\n        /* \"#utility.yul\":3330:3333   */\n      0x7200000000000000000000000000000000000000000000000000000000000000\n        /* \"#utility.yul\":3325:3327   */\n      0x20\n        /* \"#utility.yul\":3317:3323   */\n      dup3\n        /* \"#utility.yul\":3313:3328   */\n      add\n        /* \"#utility.yul\":3306:3334   */\n      mstore\n        /* \"#utility.yul\":3121:3341   */\n      pop\n      jump\t// out\n        /* \"#utility.yul\":3347:3713   */\n    tag_68:\n        /* \"#utility.yul\":3489:3492   */\n      0x00\n        /* \"#utility.yul\":3510:3577   */\n      tag_107\n        /* \"#utility.yul\":3574:3576   */\n      0x21\n        /* \"#utility.yul\":3569:3572   */\n      dup4\n        /* \"#utility.yul\":3510:3577   */\n      tag_64\n      jump\t// in\n    tag_107:\n        /* \"#utility.yul\":3503:3577   */\n      swap2\n      pop\n        /* \"#utility.yul\":3586:3679   */\n      tag_108\n        /* \"#utility.yul\":3675:3678   */\n      dup3\n        /* \"#utility.yul\":3586:3679   */\n      tag_67\n      jump\t// in\n    tag_108:\n        /* \"#utility.yul\":3704:3706   */\n      0x40\n        /* \"#utility.yul\":3699:3702   */\n      dup3\n        /* \"#utility.yul\":3695:3707   */\n      add\n        /* \"#utility.yul\":3688:3707   */\n      swap1\n      pop\n        /* \"#utility.yul\":3347:3713   */\n      swap2\n      swap1\n      pop\n      jump\t// out\n        /* \"#utility.yul\":3719:4138   */\n    tag_43:\n        /* \"#utility.yul\":3885:3889   */\n      0x00\n        /* \"#utility.yul\":3923:3925   */\n      0x20\n        /* \"#utility.yul\":3912:3921   */\n      dup3\n        /* \"#utility.yul\":3908:3926   */\n      add\n        /* \"#utility.yul\":3900:3926   */\n      swap1\n      pop\n        /* \"#utility.yul\":3972:3981   */\n      dup2\n        /* \"#utility.yul\":3966:3970   */\n      dup2\n        /* \"#utility.yul\":3962:3982   */\n      sub\n        /* \"#utility.yul\":3958:3959   */\n      0x00\n        /* \"#utility.yul\":3947:3956   */\n      dup4\n        /* \"#utility.yul\":3943:3960   */\n      add\n        /* \"#utility.yul\":3936:3983   */\n      mstore\n        /* \"#utility.yul\":4000:4131   */\n      tag_110\n        /* \"#utility.yul\":4126:4130   */\n      dup2\n        /* \"#utility.yul\":4000:4131   */\n      tag_68\n      jump\t// in\n    tag_110:\n        /* \"#utility.yul\":3992:4131   */\n      swap1\n      pop\n        /* \"#utility.yul\":3719:4138   */\n      swap2\n      swap1\n      pop\n      jump\t// out\n        /* \"#utility.yul\":4144:4369   */\n    tag_69:\n        /* \"#utility.yul\":4284:4318   */\n      0x4e6f2068617920737566696369656e74652073616c646f20656e20656c20636f\n        /* \"#utility.yul\":4280:4281   */\n      0x00\n        /* \"#utility.yul\":4272:4278   */\n      dup3\n        /* \"#utility.yul\":4268:4282   */\n      add\n        /* \"#utility.yul\":4261:4319   */\n      mstore\n        /* \"#utility.yul\":4353:4361   */\n      0x6e747261746f0000000000000000000000000000000000000000000000000000\n        /* \"#utility.yul\":4348:4350   */\n      0x20\n        /* \"#utility.yul\":4340:4346   */\n      dup3\n        /* \"#utility.yul\":4336:4351   */\n      add\n        /* \"#utility.yul\":4329:4362   */\n      mstore\n        /* \"#utility.yul\":4144:4369   */\n      pop\n      jump\t// out\n        /* \"#utility.yul\":4375:4741   */\n    tag_70:\n        /* \"#utility.yul\":4517:4520   */\n      0x00\n        /* \"#utility.yul\":4538:4605   */\n      tag_113\n        /* \"#utility.yul\":4602:4604   */\n      0x26\n        /* \"#utility.yul\":4597:4600   */\n      dup4\n        /* \"#utility.yul\":4538:4605   */\n      tag_64\n      jump\t// in\n    tag_113:\n        /* \"#utility.yul\":4531:4605   */\n      swap2\n      pop\n        /* \"#utility.yul\":4614:4707   */\n      tag_114\n        /* \"#utility.yul\":4703:4706   */\n      dup3\n        /* \"#utility.yul\":4614:4707   */\n      tag_69\n      jump\t// in\n    tag_114:\n        /* \"#utility.yul\":4732:4734   */\n      0x40\n        /* \"#utility.yul\":4727:4730   */\n      dup3\n        /* \"#utility.yul\":4723:4735   */\n      add\n        /* \"#utility.yul\":4716:4735   */\n      swap1\n      pop\n        /* \"#utility.yul\":4375:4741   */\n      swap2\n      swap1\n      pop\n      jump\t// out\n        /* \"#utility.yul\":4747:5166   */\n    tag_46:\n        /* \"#utility.yul\":4913:4917   */\n      0x00\n        /* \"#utility.yul\":4951:4953   */\n      0x20\n        /* \"#utility.yul\":4940:4949   */\n      dup3\n        /* \"#utility.yul\":4936:4954   */\n      add\n        /* \"#utility.yul\":4928:4954   */\n      swap1\n      pop\n        /* \"#utility.yul\":5000:5009   */\n      dup2\n        /* \"#utility.yul\":4994:4998   */\n      dup2\n        /* \"#utility.yul\":4990:5010   */\n      sub\n        /* \"#utility.yul\":4986:4987   */\n      0x00\n        /* \"#utility.yul\":4975:4984   */\n      dup4\n        /* \"#utility.yul\":4971:4988   */\n      add\n        /* \"#utility.yul\":4964:5011   */\n      mstore\n        /* \"#utility.yul\":5028:5159   */\n      tag_116\n        /* \"#utility.yul\":5154:5158   */\n      dup2\n        /* \"#utility.yul\":5028:5159   */\n      tag_70\n      jump\t// in\n    tag_116:\n        /* \"#utility.yul\":5020:5159   */\n      swap1\n      pop\n        /* \"#utility.yul\":4747:5166   */\n      swap2\n      swap1\n      pop\n      jump\t// out\n        /* \"#utility.yul\":5172:5347   */\n    tag_71:\n        /* \"#utility.yul\":5312:5339   */\n      0x4465626520656e7669617220616c676f20646520457468657200000000000000\n        /* \"#utility.yul\":5308:5309   */\n      0x00\n        /* \"#utility.yul\":5300:5306   */\n      dup3\n        /* \"#utility.yul\":5296:5310   */\n      add\n        /* \"#utility.yul\":5289:5340   */\n      mstore\n        /* \"#utility.yul\":5172:5347   */\n      pop\n      jump\t// out\n        /* \"#utility.yul\":5353:5719   */\n    tag_72:\n        /* \"#utility.yul\":5495:5498   */\n      0x00\n        /* \"#utility.yul\":5516:5583   */\n      tag_119\n        /* \"#utility.yul\":5580:5582   */\n      0x19\n        /* \"#utility.yul\":5575:5578   */\n      dup4\n        /* \"#utility.yul\":5516:5583   */\n      tag_64\n      jump\t// in\n    tag_119:\n        /* \"#utility.yul\":5509:5583   */\n      swap2\n      pop\n        /* \"#utility.yul\":5592:5685   */\n      tag_120\n        /* \"#utility.yul\":5681:5684   */\n      dup3\n        /* \"#utility.yul\":5592:5685   */\n      tag_71\n      jump\t// in\n    tag_120:\n        /* \"#utility.yul\":5710:5712   */\n      0x20\n        /* \"#utility.yul\":5705:5708   */\n      dup3\n        /* \"#utility.yul\":5701:5713   */\n      add\n        /* \"#utility.yul\":5694:5713   */\n      swap1\n      pop\n        /* \"#utility.yul\":5353:5719   */\n      swap2\n      swap1\n      pop\n      jump\t// out\n        /* \"#utility.yul\":5725:6144   */\n    tag_53:\n        /* \"#utility.yul\":5891:5895   */\n      0x00\n        /* \"#utility.yul\":5929:5931   */\n      0x20\n        /* \"#utility.yul\":5918:5927   */\n      dup3\n        /* \"#utility.yul\":5914:5932   */\n      add\n        /* \"#utility.yul\":5906:5932   */\n      swap1\n      pop\n        /* \"#utility.yul\":5978:5987   */\n      dup2\n        /* \"#utility.yul\":5972:5976   */\n      dup2\n        /* \"#utility.yul\":5968:5988   */\n      sub\n        /* \"#utility.yul\":5964:5965   */\n      0x00\n        /* \"#utility.yul\":5953:5962   */\n      dup4\n        /* \"#utility.yul\":5949:5966   */\n      add\n        /* \"#utility.yul\":5942:5989   */\n      mstore\n        /* \"#utility.yul\":6006:6137   */\n      tag_122\n        /* \"#utility.yul\":6132:6136   */\n      dup2\n        /* \"#utility.yul\":6006:6137   */\n      tag_72\n      jump\t// in\n    tag_122:\n        /* \"#utility.yul\":5998:6137   */\n      swap1\n      pop\n        /* \"#utility.yul\":5725:6144   */\n      swap2\n      swap1\n      pop\n      jump\t// out\n\n    auxdata: 0xa26469706673582212207e24dda403d9e502100b597053f1485dae37dbb5363a19c6bbc3c1a80dca8e1364736f6c634300081a0033\n}\n",
				"bytecode": {
					"linkReferences": {},
					"object": "608060405234801561000f575f80fd5b506040516108f73803806108f783398181016040528101906100319190610114565b335f806101000a81548173ffffffffffffffffffffffffffffffffffffffff021916908373ffffffffffffffffffffffffffffffffffffffff1602179055508060015f6101000a81548173ffffffffffffffffffffffffffffffffffffffff021916908373ffffffffffffffffffffffffffffffffffffffff1602179055505061013f565b5f80fd5b5f73ffffffffffffffffffffffffffffffffffffffff82169050919050565b5f6100e3826100ba565b9050919050565b6100f3816100d9565b81146100fd575f80fd5b50565b5f8151905061010e816100ea565b92915050565b5f60208284031215610129576101286100b6565b5b5f61013684828501610100565b91505092915050565b6107ab8061014c5f395ff3fe608060405260043610610054575f3560e01c806306867f7d1461005857806312065fe0146100825780632e1a7d4d146100ac57806361a5c7ea146100d4578063d0e30db0146100fc578063ecb6af2114610106575b5f80fd5b348015610063575f80fd5b5061006c610130565b60405161007991906104d6565b60405180910390f35b34801561008d575f80fd5b50610096610153565b6040516100a39190610507565b60405180910390f35b3480156100b7575f80fd5b506100d260048036038101906100cd919061054e565b61015a565b005b3480156100df575f80fd5b506100fa60048036038101906100f5919061054e565b610251565b005b61010461042e565b005b348015610111575f80fd5b5061011a610472565b60405161012791906104d6565b60405180910390f35b5f8054906101000a900473ffffffffffffffffffffffffffffffffffffffff1681565b5f47905090565b60015f9054906101000a900473ffffffffffffffffffffffffffffffffffffffff1673ffffffffffffffffffffffffffffffffffffffff163373ffffffffffffffffffffffffffffffffffffffff16146101e9576040517f08c379a00000000000000000000000000000000000000000000000000000000081526004016101e0906105d3565b60405180910390fd5b60015f9054906101000a900473ffffffffffffffffffffffffffffffffffffffff1673ffffffffffffffffffffffffffffffffffffffff166108fc8290811502906040515f60405180830381858888f1935050505015801561024d573d5f803e3d5ffd5b5050565b5f8054906101000a900473ffffffffffffffffffffffffffffffffffffffff1673ffffffffffffffffffffffffffffffffffffffff163373ffffffffffffffffffffffffffffffffffffffff16146102de576040517f08c379a00000000000000000000000000000000000000000000000000000000081526004016102d590610661565b60405180910390fd5b80471015610321576040517f08c379a0000000000000000000000000000000000000000000000000000000008152600401610318906106ef565b60405180910390fd5b60015f9054906101000a900473ffffffffffffffffffffffffffffffffffffffff1673ffffffffffffffffffffffffffffffffffffffff166108fc8290811502906040515f60405180830381858888f19350505050158015610385573d5f803e3d5ffd5b5060015f9054906101000a900473ffffffffffffffffffffffffffffffffffffffff1673ffffffffffffffffffffffffffffffffffffffff165f8054906101000a900473ffffffffffffffffffffffffffffffffffffffff1673ffffffffffffffffffffffffffffffffffffffff167fddf252ad1be2c89b69c2b068fc378daa952ba7f163c4a11628f55a4df523b3ef836040516104239190610507565b60405180910390a350565b5f3411610470576040517f08c379a000000000000000000000000000000000000000000000000000000000815260040161046790610757565b60405180910390fd5b565b60015f9054906101000a900473ffffffffffffffffffffffffffffffffffffffff1681565b5f73ffffffffffffffffffffffffffffffffffffffff82169050919050565b5f6104c082610497565b9050919050565b6104d0816104b6565b82525050565b5f6020820190506104e95f8301846104c7565b92915050565b5f819050919050565b610501816104ef565b82525050565b5f60208201905061051a5f8301846104f8565b92915050565b5f80fd5b61052d816104ef565b8114610537575f80fd5b50565b5f8135905061054881610524565b92915050565b5f6020828403121561056357610562610520565b5b5f6105708482850161053a565b91505092915050565b5f82825260208201905092915050565b7f536f6c6f206c61206375656e74612042207075656465207265746972617200005f82015250565b5f6105bd601e83610579565b91506105c882610589565b602082019050919050565b5f6020820190508181035f8301526105ea816105b1565b9050919050565b7f536f6c6f206c61206375656e74612041207075656465207472616e73666572695f8201527f7200000000000000000000000000000000000000000000000000000000000000602082015250565b5f61064b602183610579565b9150610656826105f1565b604082019050919050565b5f6020820190508181035f8301526106788161063f565b9050919050565b7f4e6f2068617920737566696369656e74652073616c646f20656e20656c20636f5f8201527f6e747261746f0000000000000000000000000000000000000000000000000000602082015250565b5f6106d9602683610579565b91506106e48261067f565b604082019050919050565b5f6020820190508181035f830152610706816106cd565b9050919050565b7f4465626520656e7669617220616c676f206465204574686572000000000000005f82015250565b5f610741601983610579565b915061074c8261070d565b602082019050919050565b5f6020820190508181035f83015261076e81610735565b905091905056fea26469706673582212207e24dda403d9e502100b597053f1485dae37dbb5363a19c6bbc3c1a80dca8e1364736f6c634300081a0033",
					"opcodes": "PUSH1 0x80 PUSH1 0x40 MSTORE CALLVALUE DUP1 ISZERO PUSH2 0xF JUMPI PUSH0 DUP1 REVERT JUMPDEST POP PUSH1 0x40 MLOAD PUSH2 0x8F7 CODESIZE SUB DUP1 PUSH2 0x8F7 DUP4 CODECOPY DUP2 DUP2 ADD PUSH1 0x40 MSTORE DUP2 ADD SWAP1 PUSH2 0x31 SWAP2 SWAP1 PUSH2 0x114 JUMP JUMPDEST CALLER PUSH0 DUP1 PUSH2 0x100 EXP DUP2 SLOAD DUP2 PUSH20 0xFFFFFFFFFFFFFFFFFFFFFFFFFFFFFFFFFFFFFFFF MUL NOT AND SWAP1 DUP4 PUSH20 0xFFFFFFFFFFFFFFFFFFFFFFFFFFFFFFFFFFFFFFFF AND MUL OR SWAP1 SSTORE POP DUP1 PUSH1 0x1 PUSH0 PUSH2 0x100 EXP DUP2 SLOAD DUP2 PUSH20 0xFFFFFFFFFFFFFFFFFFFFFFFFFFFFFFFFFFFFFFFF MUL NOT AND SWAP1 DUP4 PUSH20 0xFFFFFFFFFFFFFFFFFFFFFFFFFFFFFFFFFFFFFFFF AND MUL OR SWAP1 SSTORE POP POP PUSH2 0x13F JUMP JUMPDEST PUSH0 DUP1 REVERT JUMPDEST PUSH0 PUSH20 0xFFFFFFFFFFFFFFFFFFFFFFFFFFFFFFFFFFFFFFFF DUP3 AND SWAP1 POP SWAP2 SWAP1 POP JUMP JUMPDEST PUSH0 PUSH2 0xE3 DUP3 PUSH2 0xBA JUMP JUMPDEST SWAP1 POP SWAP2 SWAP1 POP JUMP JUMPDEST PUSH2 0xF3 DUP2 PUSH2 0xD9 JUMP JUMPDEST DUP2 EQ PUSH2 0xFD JUMPI PUSH0 DUP1 REVERT JUMPDEST POP JUMP JUMPDEST PUSH0 DUP2 MLOAD SWAP1 POP PUSH2 0x10E DUP2 PUSH2 0xEA JUMP JUMPDEST SWAP3 SWAP2 POP POP JUMP JUMPDEST PUSH0 PUSH1 0x20 DUP3 DUP5 SUB SLT ISZERO PUSH2 0x129 JUMPI PUSH2 0x128 PUSH2 0xB6 JUMP JUMPDEST JUMPDEST PUSH0 PUSH2 0x136 DUP5 DUP3 DUP6 ADD PUSH2 0x100 JUMP JUMPDEST SWAP2 POP POP SWAP3 SWAP2 POP POP JUMP JUMPDEST PUSH2 0x7AB DUP1 PUSH2 0x14C PUSH0 CODECOPY PUSH0 RETURN INVALID PUSH1 0x80 PUSH1 0x40 MSTORE PUSH1 0x4 CALLDATASIZE LT PUSH2 0x54 JUMPI PUSH0 CALLDATALOAD PUSH1 0xE0 SHR DUP1 PUSH4 0x6867F7D EQ PUSH2 0x58 JUMPI DUP1 PUSH4 0x12065FE0 EQ PUSH2 0x82 JUMPI DUP1 PUSH4 0x2E1A7D4D EQ PUSH2 0xAC JUMPI DUP1 PUSH4 0x61A5C7EA EQ PUSH2 0xD4 JUMPI DUP1 PUSH4 0xD0E30DB0 EQ PUSH2 0xFC JUMPI DUP1 PUSH4 0xECB6AF21 EQ PUSH2 0x106 JUMPI JUMPDEST PUSH0 DUP1 REVERT JUMPDEST CALLVALUE DUP1 ISZERO PUSH2 0x63 JUMPI PUSH0 DUP1 REVERT JUMPDEST POP PUSH2 0x6C PUSH2 0x130 JUMP JUMPDEST PUSH1 0x40 MLOAD PUSH2 0x79 SWAP2 SWAP1 PUSH2 0x4D6 JUMP JUMPDEST PUSH1 0x40 MLOAD DUP1 SWAP2 SUB SWAP1 RETURN JUMPDEST CALLVALUE DUP1 ISZERO PUSH2 0x8D JUMPI PUSH0 DUP1 REVERT JUMPDEST POP PUSH2 0x96 PUSH2 0x153 JUMP JUMPDEST PUSH1 0x40 MLOAD PUSH2 0xA3 SWAP2 SWAP1 PUSH2 0x507 JUMP JUMPDEST PUSH1 0x40 MLOAD DUP1 SWAP2 SUB SWAP1 RETURN JUMPDEST CALLVALUE DUP1 ISZERO PUSH2 0xB7 JUMPI PUSH0 DUP1 REVERT JUMPDEST POP PUSH2 0xD2 PUSH1 0x4 DUP1 CALLDATASIZE SUB DUP2 ADD SWAP1 PUSH2 0xCD SWAP2 SWAP1 PUSH2 0x54E JUMP JUMPDEST PUSH2 0x15A JUMP JUMPDEST STOP JUMPDEST CALLVALUE DUP1 ISZERO PUSH2 0xDF JUMPI PUSH0 DUP1 REVERT JUMPDEST POP PUSH2 0xFA PUSH1 0x4 DUP1 CALLDATASIZE SUB DUP2 ADD SWAP1 PUSH2 0xF5 SWAP2 SWAP1 PUSH2 0x54E JUMP JUMPDEST PUSH2 0x251 JUMP JUMPDEST STOP JUMPDEST PUSH2 0x104 PUSH2 0x42E JUMP JUMPDEST STOP JUMPDEST CALLVALUE DUP1 ISZERO PUSH2 0x111 JUMPI PUSH0 DUP1 REVERT JUMPDEST POP PUSH2 0x11A PUSH2 0x472 JUMP JUMPDEST PUSH1 0x40 MLOAD PUSH2 0x127 SWAP2 SWAP1 PUSH2 0x4D6 JUMP JUMPDEST PUSH1 0x40 MLOAD DUP1 SWAP2 SUB SWAP1 RETURN JUMPDEST PUSH0 DUP1 SLOAD SWAP1 PUSH2 0x100 EXP SWAP1 DIV PUSH20 0xFFFFFFFFFFFFFFFFFFFFFFFFFFFFFFFFFFFFFFFF AND DUP2 JUMP JUMPDEST PUSH0 SELFBALANCE SWAP1 POP SWAP1 JUMP JUMPDEST PUSH1 0x1 PUSH0 SWAP1 SLOAD SWAP1 PUSH2 0x100 EXP SWAP1 DIV PUSH20 0xFFFFFFFFFFFFFFFFFFFFFFFFFFFFFFFFFFFFFFFF AND PUSH20 0xFFFFFFFFFFFFFFFFFFFFFFFFFFFFFFFFFFFFFFFF AND CALLER PUSH20 0xFFFFFFFFFFFFFFFFFFFFFFFFFFFFFFFFFFFFFFFF AND EQ PUSH2 0x1E9 JUMPI PUSH1 0x40 MLOAD PUSH32 0x8C379A000000000000000000000000000000000000000000000000000000000 DUP2 MSTORE PUSH1 0x4 ADD PUSH2 0x1E0 SWAP1 PUSH2 0x5D3 JUMP JUMPDEST PUSH1 0x40 MLOAD DUP1 SWAP2 SUB SWAP1 REVERT JUMPDEST PUSH1 0x1 PUSH0 SWAP1 SLOAD SWAP1 PUSH2 0x100 EXP SWAP1 DIV PUSH20 0xFFFFFFFFFFFFFFFFFFFFFFFFFFFFFFFFFFFFFFFF AND PUSH20 0xFFFFFFFFFFFFFFFFFFFFFFFFFFFFFFFFFFFFFFFF AND PUSH2 0x8FC DUP3 SWAP1 DUP2 ISZERO MUL SWAP1 PUSH1 0x40 MLOAD PUSH0 PUSH1 0x40 MLOAD DUP1 DUP4 SUB DUP2 DUP6 DUP9 DUP9 CALL SWAP4 POP POP POP POP ISZERO DUP1 ISZERO PUSH2 0x24D JUMPI RETURNDATASIZE PUSH0 DUP1 RETURNDATACOPY RETURNDATASIZE PUSH0 REVERT JUMPDEST POP POP JUMP JUMPDEST PUSH0 DUP1 SLOAD SWAP1 PUSH2 0x100 EXP SWAP1 DIV PUSH20 0xFFFFFFFFFFFFFFFFFFFFFFFFFFFFFFFFFFFFFFFF AND PUSH20 0xFFFFFFFFFFFFFFFFFFFFFFFFFFFFFFFFFFFFFFFF AND CALLER PUSH20 0xFFFFFFFFFFFFFFFFFFFFFFFFFFFFFFFFFFFFFFFF AND EQ PUSH2 0x2DE JUMPI PUSH1 0x40 MLOAD PUSH32 0x8C379A000000000000000000000000000000000000000000000000000000000 DUP2 MSTORE PUSH1 0x4 ADD PUSH2 0x2D5 SWAP1 PUSH2 0x661 JUMP JUMPDEST PUSH1 0x40 MLOAD DUP1 SWAP2 SUB SWAP1 REVERT JUMPDEST DUP1 SELFBALANCE LT ISZERO PUSH2 0x321 JUMPI PUSH1 0x40 MLOAD PUSH32 0x8C379A000000000000000000000000000000000000000000000000000000000 DUP2 MSTORE PUSH1 0x4 ADD PUSH2 0x318 SWAP1 PUSH2 0x6EF JUMP JUMPDEST PUSH1 0x40 MLOAD DUP1 SWAP2 SUB SWAP1 REVERT JUMPDEST PUSH1 0x1 PUSH0 SWAP1 SLOAD SWAP1 PUSH2 0x100 EXP SWAP1 DIV PUSH20 0xFFFFFFFFFFFFFFFFFFFFFFFFFFFFFFFFFFFFFFFF AND PUSH20 0xFFFFFFFFFFFFFFFFFFFFFFFFFFFFFFFFFFFFFFFF AND PUSH2 0x8FC DUP3 SWAP1 DUP2 ISZERO MUL SWAP1 PUSH1 0x40 MLOAD PUSH0 PUSH1 0x40 MLOAD DUP1 DUP4 SUB DUP2 DUP6 DUP9 DUP9 CALL SWAP4 POP POP POP POP ISZERO DUP1 ISZERO PUSH2 0x385 JUMPI RETURNDATASIZE PUSH0 DUP1 RETURNDATACOPY RETURNDATASIZE PUSH0 REVERT JUMPDEST POP PUSH1 0x1 PUSH0 SWAP1 SLOAD SWAP1 PUSH2 0x100 EXP SWAP1 DIV PUSH20 0xFFFFFFFFFFFFFFFFFFFFFFFFFFFFFFFFFFFFFFFF AND PUSH20 0xFFFFFFFFFFFFFFFFFFFFFFFFFFFFFFFFFFFFFFFF AND PUSH0 DUP1 SLOAD SWAP1 PUSH2 0x100 EXP SWAP1 DIV PUSH20 0xFFFFFFFFFFFFFFFFFFFFFFFFFFFFFFFFFFFFFFFF AND PUSH20 0xFFFFFFFFFFFFFFFFFFFFFFFFFFFFFFFFFFFFFFFF AND PUSH32 0xDDF252AD1BE2C89B69C2B068FC378DAA952BA7F163C4A11628F55A4DF523B3EF DUP4 PUSH1 0x40 MLOAD PUSH2 0x423 SWAP2 SWAP1 PUSH2 0x507 JUMP JUMPDEST PUSH1 0x40 MLOAD DUP1 SWAP2 SUB SWAP1 LOG3 POP JUMP JUMPDEST PUSH0 CALLVALUE GT PUSH2 0x470 JUMPI PUSH1 0x40 MLOAD PUSH32 0x8C379A000000000000000000000000000000000000000000000000000000000 DUP2 MSTORE PUSH1 0x4 ADD PUSH2 0x467 SWAP1 PUSH2 0x757 JUMP JUMPDEST PUSH1 0x40 MLOAD DUP1 SWAP2 SUB SWAP1 REVERT JUMPDEST JUMP JUMPDEST PUSH1 0x1 PUSH0 SWAP1 SLOAD SWAP1 PUSH2 0x100 EXP SWAP1 DIV PUSH20 0xFFFFFFFFFFFFFFFFFFFFFFFFFFFFFFFFFFFFFFFF AND DUP2 JUMP JUMPDEST PUSH0 PUSH20 0xFFFFFFFFFFFFFFFFFFFFFFFFFFFFFFFFFFFFFFFF DUP3 AND SWAP1 POP SWAP2 SWAP1 POP JUMP JUMPDEST PUSH0 PUSH2 0x4C0 DUP3 PUSH2 0x497 JUMP JUMPDEST SWAP1 POP SWAP2 SWAP1 POP JUMP JUMPDEST PUSH2 0x4D0 DUP2 PUSH2 0x4B6 JUMP JUMPDEST DUP3 MSTORE POP POP JUMP JUMPDEST PUSH0 PUSH1 0x20 DUP3 ADD SWAP1 POP PUSH2 0x4E9 PUSH0 DUP4 ADD DUP5 PUSH2 0x4C7 JUMP JUMPDEST SWAP3 SWAP2 POP POP JUMP JUMPDEST PUSH0 DUP2 SWAP1 POP SWAP2 SWAP1 POP JUMP JUMPDEST PUSH2 0x501 DUP2 PUSH2 0x4EF JUMP JUMPDEST DUP3 MSTORE POP POP JUMP JUMPDEST PUSH0 PUSH1 0x20 DUP3 ADD SWAP1 POP PUSH2 0x51A PUSH0 DUP4 ADD DUP5 PUSH2 0x4F8 JUMP JUMPDEST SWAP3 SWAP2 POP POP JUMP JUMPDEST PUSH0 DUP1 REVERT JUMPDEST PUSH2 0x52D DUP2 PUSH2 0x4EF JUMP JUMPDEST DUP2 EQ PUSH2 0x537 JUMPI PUSH0 DUP1 REVERT JUMPDEST POP JUMP JUMPDEST PUSH0 DUP2 CALLDATALOAD SWAP1 POP PUSH2 0x548 DUP2 PUSH2 0x524 JUMP JUMPDEST SWAP3 SWAP2 POP POP JUMP JUMPDEST PUSH0 PUSH1 0x20 DUP3 DUP5 SUB SLT ISZERO PUSH2 0x563 JUMPI PUSH2 0x562 PUSH2 0x520 JUMP JUMPDEST JUMPDEST PUSH0 PUSH2 0x570 DUP5 DUP3 DUP6 ADD PUSH2 0x53A JUMP JUMPDEST SWAP2 POP POP SWAP3 SWAP2 POP POP JUMP JUMPDEST PUSH0 DUP3 DUP3 MSTORE PUSH1 0x20 DUP3 ADD SWAP1 POP SWAP3 SWAP2 POP POP JUMP JUMPDEST PUSH32 0x536F6C6F206C61206375656E7461204220707565646520726574697261720000 PUSH0 DUP3 ADD MSTORE POP JUMP JUMPDEST PUSH0 PUSH2 0x5BD PUSH1 0x1E DUP4 PUSH2 0x579 JUMP JUMPDEST SWAP2 POP PUSH2 0x5C8 DUP3 PUSH2 0x589 JUMP JUMPDEST PUSH1 0x20 DUP3 ADD SWAP1 POP SWAP2 SWAP1 POP JUMP JUMPDEST PUSH0 PUSH1 0x20 DUP3 ADD SWAP1 POP DUP2 DUP2 SUB PUSH0 DUP4 ADD MSTORE PUSH2 0x5EA DUP2 PUSH2 0x5B1 JUMP JUMPDEST SWAP1 POP SWAP2 SWAP1 POP JUMP JUMPDEST PUSH32 0x536F6C6F206C61206375656E74612041207075656465207472616E7366657269 PUSH0 DUP3 ADD MSTORE PUSH32 0x7200000000000000000000000000000000000000000000000000000000000000 PUSH1 0x20 DUP3 ADD MSTORE POP JUMP JUMPDEST PUSH0 PUSH2 0x64B PUSH1 0x21 DUP4 PUSH2 0x579 JUMP JUMPDEST SWAP2 POP PUSH2 0x656 DUP3 PUSH2 0x5F1 JUMP JUMPDEST PUSH1 0x40 DUP3 ADD SWAP1 POP SWAP2 SWAP1 POP JUMP JUMPDEST PUSH0 PUSH1 0x20 DUP3 ADD SWAP1 POP DUP2 DUP2 SUB PUSH0 DUP4 ADD MSTORE PUSH2 0x678 DUP2 PUSH2 0x63F JUMP JUMPDEST SWAP1 POP SWAP2 SWAP1 POP JUMP JUMPDEST PUSH32 0x4E6F2068617920737566696369656E74652073616C646F20656E20656C20636F PUSH0 DUP3 ADD MSTORE PUSH32 0x6E747261746F0000000000000000000000000000000000000000000000000000 PUSH1 0x20 DUP3 ADD MSTORE POP JUMP JUMPDEST PUSH0 PUSH2 0x6D9 PUSH1 0x26 DUP4 PUSH2 0x579 JUMP JUMPDEST SWAP2 POP PUSH2 0x6E4 DUP3 PUSH2 0x67F JUMP JUMPDEST PUSH1 0x40 DUP3 ADD SWAP1 POP SWAP2 SWAP1 POP JUMP JUMPDEST PUSH0 PUSH1 0x20 DUP3 ADD SWAP1 POP DUP2 DUP2 SUB PUSH0 DUP4 ADD MSTORE PUSH2 0x706 DUP2 PUSH2 0x6CD JUMP JUMPDEST SWAP1 POP SWAP2 SWAP1 POP JUMP JUMPDEST PUSH32 0x4465626520656E7669617220616C676F20646520457468657200000000000000 PUSH0 DUP3 ADD MSTORE POP JUMP JUMPDEST PUSH0 PUSH2 0x741 PUSH1 0x19 DUP4 PUSH2 0x579 JUMP JUMPDEST SWAP2 POP PUSH2 0x74C DUP3 PUSH2 0x70D JUMP JUMPDEST PUSH1 0x20 DUP3 ADD SWAP1 POP SWAP2 SWAP1 POP JUMP JUMPDEST PUSH0 PUSH1 0x20 DUP3 ADD SWAP1 POP DUP2 DUP2 SUB PUSH0 DUP4 ADD MSTORE PUSH2 0x76E DUP2 PUSH2 0x735 JUMP JUMPDEST SWAP1 POP SWAP2 SWAP1 POP JUMP INVALID LOG2 PUSH5 0x6970667358 0x22 SLT KECCAK256 PUSH31 0x24DDA403D9E502100B597053F1485DAE37DBB5363A19C6BBC3C1A80DCA8E13 PUSH5 0x736F6C6343 STOP ADDMOD BYTE STOP CALLER "
				},
				"gasEstimates": {
					"creation": {
						"codeDepositCost": "392600",
						"executionCost": "infinite",
						"totalCost": "infinite"
					},
					"external": {
						"accountA()": "2483",
						"accountB()": "2596",
						"deposit()": "490",
						"getBalance()": "334",
						"transferToAccountB(uint256)": "infinite",
						"withdraw(uint256)": "infinite"
					}
				},
				"methodIdentifiers": {
					"accountA()": "06867f7d",
					"accountB()": "ecb6af21",
					"deposit()": "d0e30db0",
					"getBalance()": "12065fe0",
					"transferToAccountB(uint256)": "61a5c7ea",
					"withdraw(uint256)": "2e1a7d4d"
				}
			},
			"storageLayout": {
				"storage": [
					{
						"astId": 3,
						"contract": "SimpleContract.sol:SimpleTransfer",
						"label": "accountA",
						"offset": 0,
						"slot": "0",
						"type": "t_address"
					},
					{
						"astId": 5,
						"contract": "SimpleContract.sol:SimpleTransfer",
						"label": "accountB",
						"offset": 0,
						"slot": "1",
						"type": "t_address"
					}
				],
				"types": {
					"t_address": {
						"encoding": "inplace",
						"label": "address",
						"numberOfBytes": "20"
					}
				}
			},
			"userdoc": {
				"kind": "user",
				"methods": {},
				"version": 1
			}
		}
	}
}