{
	"Contract.sol": {
		"SimpleTransfer": {
			"abi": [
				{
					"inputs": [
						{
							"internalType": "address",
							"name": "_accountA",
							"type": "address"
						},
						{
							"internalType": "address",
							"name": "_accountB",
							"type": "address"
						}
					],
					"stateMutability": "payable",
					"type": "constructor"
				},
				{
					"anonymous": false,
					"inputs": [
						{
							"indexed": true,
							"internalType": "address",
							"name": "sender",
							"type": "address"
						},
						{
							"indexed": false,
							"internalType": "uint256",
							"name": "amount",
							"type": "uint256"
						}
					],
					"name": "Deposit",
					"type": "event"
				},
				{
					"anonymous": false,
					"inputs": [
						{
							"indexed": true,
							"internalType": "address",
							"name": "from",
							"type": "address"
						},
						{
							"indexed": true,
							"internalType": "address",
							"name": "to",
							"type": "address"
						},
						{
							"indexed": false,
							"internalType": "uint256",
							"name": "amount",
							"type": "uint256"
						}
					],
					"name": "Transfer",
					"type": "event"
				},
				{
					"anonymous": false,
					"inputs": [
						{
							"indexed": true,
							"internalType": "address",
							"name": "to",
							"type": "address"
						},
						{
							"indexed": false,
							"internalType": "uint256",
							"name": "amount",
							"type": "uint256"
						}
					],
					"name": "Withdrawal",
					"type": "event"
				},
				{
					"inputs": [],
					"name": "accountA",
					"outputs": [
						{
							"internalType": "address",
							"name": "",
							"type": "address"
						}
					],
					"stateMutability": "view",
					"type": "function"
				},
				{
					"inputs": [],
					"name": "accountB",
					"outputs": [
						{
							"internalType": "address",
							"name": "",
							"type": "address"
						}
					],
					"stateMutability": "view",
					"type": "function"
				},
				{
					"inputs": [],
					"name": "deposit",
					"outputs": [],
					"stateMutability": "payable",
					"type": "function"
				},
				{
					"inputs": [],
					"name": "getContractBalance",
					"outputs": [
						{
							"internalType": "uint256",
							"name": "",
							"type": "uint256"
						}
					],
					"stateMutability": "view",
					"type": "function"
				},
				{
					"inputs": [
						{
							"internalType": "uint256",
							"name": "amount",
							"type": "uint256"
						}
					],
					"name": "transferToAccountB",
					"outputs": [],
					"stateMutability": "nonpayable",
					"type": "function"
				},
				{
					"inputs": [
						{
							"internalType": "uint256",
							"name": "amount",
							"type": "uint256"
						}
					],
					"name": "withdraw",
					"outputs": [],
					"stateMutability": "nonpayable",
					"type": "function"
				}
			],
			"devdoc": {
				"kind": "dev",
				"methods": {},
				"version": 1
			},
			"evm": {
				"assembly": "    /* \"Contract.sol\":60:2213  contract SimpleTransfer {\r... */\n  mstore(0x40, 0x80)\n    /* \"Contract.sol\":688:1123  constructor(address _accountA, address _accountB) payable {\r... */\n  mload(0x40)\n  sub(codesize, bytecodeSize)\n  dup1\n  bytecodeSize\n  dup4\n  codecopy\n  dup2\n  add\n  0x40\n  dup2\n  swap1\n  mstore\n  tag_1\n  swap2\n  tag_2\n  jump\t// in\ntag_1:\n  sub(shl(0xa0, 0x01), 0x01)\n    /* \"Contract.sol\":765:788  _accountA != address(0) */\n  dup3\n  and\n    /* \"Contract.sol\":757:835  require(_accountA != address(0), \"La cuenta A no puede ser la direccion cero\") */\n  tag_5\n  jumpi\n  mload(0x40)\n  shl(0xe5, 0x461bcd)\n  dup2\n  mstore\n  0x04\n  add\n  tag_6\n  swap1\n  tag_7\n  jump\t// in\ntag_6:\n  mload(0x40)\n  dup1\n  swap2\n  sub\n  swap1\n  revert\ntag_5:\n  sub(shl(0xa0, 0x01), 0x01)\n    /* \"Contract.sol\":854:877  _accountB != address(0) */\n  dup2\n  and\n    /* \"Contract.sol\":846:924  require(_accountB != address(0), \"La cuenta B no puede ser la direccion cero\") */\n  tag_8\n  jumpi\n  mload(0x40)\n  shl(0xe5, 0x461bcd)\n  dup2\n  mstore\n  0x04\n  add\n  tag_6\n  swap1\n  tag_10\n  jump\t// in\ntag_8:\n    /* \"Contract.sol\":955:956  0 */\n  0x00\n    /* \"Contract.sol\":943:952  msg.value */\n  callvalue\n    /* \"Contract.sol\":943:956  msg.value > 0 */\n  gt\n    /* \"Contract.sol\":935:1003  require(msg.value > 0, \"Debe enviar Ether al desplegar el contrato\") */\n  tag_11\n  jumpi\n  mload(0x40)\n  shl(0xe5, 0x461bcd)\n  dup2\n  mstore\n  0x04\n  add\n  tag_6\n  swap1\n  tag_13\n  jump\t// in\ntag_11:\n    /* \"Contract.sol\":1016:1024  accountA */\n  0x00\n    /* \"Contract.sol\":1016:1036  accountA = _accountA */\n  dup1\n  sload\n  sub(shl(0xa0, 0x01), 0x01)\n  dup1\n  dup6\n  and\n  not(sub(shl(0xa0, 0x01), 0x01))\n  swap3\n  dup4\n  and\n  or\n  swap1\n  swap3\n  sstore\n  0x01\n    /* \"Contract.sol\":1047:1067  accountB = _accountB */\n  dup1\n  sload\n  swap3\n  dup5\n  and\n  swap3\n  swap1\n  swap2\n  and\n  swap2\n  swap1\n  swap2\n  or\n  swap1\n  sstore\n    /* \"Contract.sol\":1085:1115  Deposit(msg.sender, msg.value) */\n  mload(0x40)\n    /* \"Contract.sol\":1093:1103  msg.sender */\n  caller\n  swap1\n    /* \"Contract.sol\":1085:1115  Deposit(msg.sender, msg.value) */\n  0xe1fffcc4923d04b559f4d29a8bfc6cda04eb5b0d3c460751c2402c5c5cc9109c\n  swap1\n  tag_14\n  swap1\n    /* \"Contract.sol\":1105:1114  msg.value */\n  callvalue\n  swap1\n    /* \"Contract.sol\":1085:1115  Deposit(msg.sender, msg.value) */\n  tag_15\n  jump\t// in\ntag_14:\n  mload(0x40)\n  dup1\n  swap2\n  sub\n  swap1\n  log2\n    /* \"Contract.sol\":688:1123  constructor(address _accountA, address _accountB) payable {\r... */\n  pop\n  pop\n    /* \"Contract.sol\":60:2213  contract SimpleTransfer {\r... */\n  jump(tag_17)\n    /* \"#utility.yul\":14:193   */\ntag_18:\n    /* \"#utility.yul\":95:108   */\n  dup1\n  mload\n  sub(shl(0xa0, 0x01), 0x01)\n    /* \"#utility.yul\":137:168   */\n  dup2\n  and\n    /* \"#utility.yul\":127:169   */\n  dup2\n  eq\n    /* \"#utility.yul\":117:119   */\n  tag_20\n  jumpi\n    /* \"#utility.yul\":183:184   */\n  0x00\n    /* \"#utility.yul\":180:181   */\n  dup1\n    /* \"#utility.yul\":173:185   */\n  revert\n    /* \"#utility.yul\":117:119   */\ntag_20:\n    /* \"#utility.yul\":76:193   */\n  swap2\n  swap1\n  pop\n  jump\t// out\n    /* \"#utility.yul\":198:505   */\ntag_2:\n  0x00\n  dup1\n    /* \"#utility.yul\":338:340   */\n  0x40\n    /* \"#utility.yul\":326:335   */\n  dup4\n    /* \"#utility.yul\":317:324   */\n  dup6\n    /* \"#utility.yul\":313:336   */\n  sub\n    /* \"#utility.yul\":309:341   */\n  slt\n    /* \"#utility.yul\":306:308   */\n  iszero\n  tag_22\n  jumpi\n    /* \"#utility.yul\":359:365   */\n  dup2\n    /* \"#utility.yul\":351:357   */\n  dup3\n    /* \"#utility.yul\":344:366   */\n  revert\n    /* \"#utility.yul\":306:308   */\ntag_22:\n    /* \"#utility.yul\":387:429   */\n  tag_23\n    /* \"#utility.yul\":419:428   */\n  dup4\n    /* \"#utility.yul\":387:429   */\n  tag_18\n  jump\t// in\ntag_23:\n    /* \"#utility.yul\":377:429   */\n  swap2\n  pop\n    /* \"#utility.yul\":448:499   */\n  tag_24\n    /* \"#utility.yul\":495:497   */\n  0x20\n    /* \"#utility.yul\":484:493   */\n  dup5\n    /* \"#utility.yul\":480:498   */\n  add\n    /* \"#utility.yul\":448:499   */\n  tag_18\n  jump\t// in\ntag_24:\n    /* \"#utility.yul\":438:499   */\n  swap1\n  pop\n    /* \"#utility.yul\":296:505   */\n  swap3\n  pop\n  swap3\n  swap1\n  pop\n  jump\t// out\n    /* \"#utility.yul\":510:916   */\ntag_10:\n    /* \"#utility.yul\":712:714   */\n  0x20\n    /* \"#utility.yul\":694:715   */\n  dup1\n  dup3\n  mstore\n    /* \"#utility.yul\":751:753   */\n  0x2a\n    /* \"#utility.yul\":731:749   */\n  swap1\n  dup3\n  add\n    /* \"#utility.yul\":724:754   */\n  mstore\n    /* \"#utility.yul\":790:824   */\n  0x4c61206375656e74612042206e6f20707565646520736572206c612064697265\n    /* \"#utility.yul\":785:787   */\n  0x40\n    /* \"#utility.yul\":770:788   */\n  dup3\n  add\n    /* \"#utility.yul\":763:825   */\n  mstore\n  shl(0xb0, 0x6363696f6e206365726f)\n    /* \"#utility.yul\":856:858   */\n  0x60\n    /* \"#utility.yul\":841:859   */\n  dup3\n  add\n    /* \"#utility.yul\":834:874   */\n  mstore\n    /* \"#utility.yul\":906:909   */\n  0x80\n    /* \"#utility.yul\":891:910   */\n  add\n  swap1\n    /* \"#utility.yul\":684:916   */\n  jump\t// out\n    /* \"#utility.yul\":921:1327   */\ntag_13:\n    /* \"#utility.yul\":1123:1125   */\n  0x20\n    /* \"#utility.yul\":1105:1126   */\n  dup1\n  dup3\n  mstore\n    /* \"#utility.yul\":1162:1164   */\n  0x2a\n    /* \"#utility.yul\":1142:1160   */\n  swap1\n  dup3\n  add\n    /* \"#utility.yul\":1135:1165   */\n  mstore\n    /* \"#utility.yul\":1201:1235   */\n  0x4465626520656e7669617220457468657220616c20646573706c656761722065\n    /* \"#utility.yul\":1196:1198   */\n  0x40\n    /* \"#utility.yul\":1181:1199   */\n  dup3\n  add\n    /* \"#utility.yul\":1174:1236   */\n  mstore\n  shl(0xb0, 0x6c20636f6e747261746f)\n    /* \"#utility.yul\":1267:1269   */\n  0x60\n    /* \"#utility.yul\":1252:1270   */\n  dup3\n  add\n    /* \"#utility.yul\":1245:1285   */\n  mstore\n    /* \"#utility.yul\":1317:1320   */\n  0x80\n    /* \"#utility.yul\":1302:1321   */\n  add\n  swap1\n    /* \"#utility.yul\":1095:1327   */\n  jump\t// out\n    /* \"#utility.yul\":1332:1738   */\ntag_7:\n    /* \"#utility.yul\":1534:1536   */\n  0x20\n    /* \"#utility.yul\":1516:1537   */\n  dup1\n  dup3\n  mstore\n    /* \"#utility.yul\":1573:1575   */\n  0x2a\n    /* \"#utility.yul\":1553:1571   */\n  swap1\n  dup3\n  add\n    /* \"#utility.yul\":1546:1576   */\n  mstore\n    /* \"#utility.yul\":1612:1646   */\n  0x4c61206375656e74612041206e6f20707565646520736572206c612064697265\n    /* \"#utility.yul\":1607:1609   */\n  0x40\n    /* \"#utility.yul\":1592:1610   */\n  dup3\n  add\n    /* \"#utility.yul\":1585:1647   */\n  mstore\n  shl(0xb0, 0x6363696f6e206365726f)\n    /* \"#utility.yul\":1678:1680   */\n  0x60\n    /* \"#utility.yul\":1663:1681   */\n  dup3\n  add\n    /* \"#utility.yul\":1656:1696   */\n  mstore\n    /* \"#utility.yul\":1728:1731   */\n  0x80\n    /* \"#utility.yul\":1713:1732   */\n  add\n  swap1\n    /* \"#utility.yul\":1506:1738   */\n  jump\t// out\n    /* \"#utility.yul\":1743:1920   */\ntag_15:\n    /* \"#utility.yul\":1889:1914   */\n  swap1\n  dup2\n  mstore\n    /* \"#utility.yul\":1877:1879   */\n  0x20\n    /* \"#utility.yul\":1862:1880   */\n  add\n  swap1\n    /* \"#utility.yul\":1844:1920   */\n  jump\t// out\ntag_17:\n    /* \"Contract.sol\":60:2213  contract SimpleTransfer {\r... */\n  dataSize(sub_0)\n  dup1\n  dataOffset(sub_0)\n  0x00\n  codecopy\n  0x00\n  return\nstop\n\nsub_0: assembly {\n        /* \"Contract.sol\":60:2213  contract SimpleTransfer {\r... */\n      mstore(0x40, 0x80)\n      jumpi(tag_1, lt(calldatasize, 0x04))\n      shr(0xe0, calldataload(0x00))\n      dup1\n      0x06867f7d\n      eq\n      tag_2\n      jumpi\n      dup1\n      0x2e1a7d4d\n      eq\n      tag_3\n      jumpi\n      dup1\n      0x61a5c7ea\n      eq\n      tag_4\n      jumpi\n      dup1\n      0x6f9fb98a\n      eq\n      tag_5\n      jumpi\n      dup1\n      0xd0e30db0\n      eq\n      tag_6\n      jumpi\n      dup1\n      0xecb6af21\n      eq\n      tag_7\n      jumpi\n    tag_1:\n      0x00\n      dup1\n      revert\n        /* \"Contract.sol\":91:114  address public accountA */\n    tag_2:\n      callvalue\n      dup1\n      iszero\n      tag_8\n      jumpi\n      0x00\n      dup1\n      revert\n    tag_8:\n      pop\n      tag_9\n      tag_10\n      jump\t// in\n    tag_9:\n      mload(0x40)\n      tag_11\n      swap2\n      swap1\n      tag_12\n      jump\t// in\n    tag_11:\n      mload(0x40)\n      dup1\n      swap2\n      sub\n      swap1\n      return\n        /* \"Contract.sol\":1715:2093  function withdraw(uint256 amount) external onlyAccountB {\r... */\n    tag_3:\n      callvalue\n      dup1\n      iszero\n      tag_13\n      jumpi\n      0x00\n      dup1\n      revert\n    tag_13:\n      pop\n      tag_14\n      tag_15\n      calldatasize\n      0x04\n      tag_16\n      jump\t// in\n    tag_15:\n      tag_17\n      jump\t// in\n    tag_14:\n      stop\n        /* \"Contract.sol\":1304:1707  function transferToAccountB(uint256 amount) external onlyAccountA {\r... */\n    tag_4:\n      callvalue\n      dup1\n      iszero\n      tag_18\n      jumpi\n      0x00\n      dup1\n      revert\n    tag_18:\n      pop\n      tag_14\n      tag_20\n      calldatasize\n      0x04\n      tag_16\n      jump\t// in\n    tag_20:\n      tag_21\n      jump\t// in\n        /* \"Contract.sol\":2101:2210  function getContractBalance() external view returns (uint256) {\r... */\n    tag_5:\n      callvalue\n      dup1\n      iszero\n      tag_22\n      jumpi\n      0x00\n      dup1\n      revert\n    tag_22:\n      pop\n      tag_23\n      tag_24\n      jump\t// in\n    tag_23:\n      mload(0x40)\n      tag_11\n      swap2\n      swap1\n      tag_26\n      jump\t// in\n        /* \"Contract.sol\":1131:1296  function deposit() external payable {\r... */\n    tag_6:\n      tag_14\n      tag_28\n      jump\t// in\n        /* \"Contract.sol\":143:166  address public accountB */\n    tag_7:\n      callvalue\n      dup1\n      iszero\n      tag_29\n      jumpi\n      0x00\n      dup1\n      revert\n    tag_29:\n      pop\n      tag_9\n      tag_31\n      jump\t// in\n        /* \"Contract.sol\":91:114  address public accountA */\n    tag_10:\n      and(sub(shl(0xa0, 0x01), 0x01), sload(0x00))\n      dup2\n      jump\t// out\n        /* \"Contract.sol\":1715:2093  function withdraw(uint256 amount) external onlyAccountB {\r... */\n    tag_17:\n        /* \"Contract.sol\":601:609  accountB */\n      and(sub(shl(0xa0, 0x01), 0x01), sload(0x01))\n        /* \"Contract.sol\":587:597  msg.sender */\n      caller\n        /* \"Contract.sol\":587:609  msg.sender == accountB */\n      eq\n        /* \"Contract.sol\":579:660  require(msg.sender == accountB, \"Solo la cuenta B puede realizar esta operacion\") */\n      tag_34\n      jumpi\n      mload(0x40)\n      shl(0xe5, 0x461bcd)\n      dup2\n      mstore\n      0x04\n      add\n      tag_35\n      swap1\n      tag_36\n      jump\t// in\n    tag_35:\n      mload(0x40)\n      dup1\n      swap2\n      sub\n      swap1\n      revert\n    tag_34:\n        /* \"Contract.sol\":1799:1800  0 */\n      0x00\n        /* \"Contract.sol\":1790:1796  amount */\n      dup2\n        /* \"Contract.sol\":1790:1800  amount > 0 */\n      gt\n        /* \"Contract.sol\":1782:1832  require(amount > 0, \"El monto debe ser mayor a 0\") */\n      tag_38\n      jumpi\n      mload(0x40)\n      shl(0xe5, 0x461bcd)\n      dup2\n      mstore\n      0x04\n      add\n      tag_35\n      swap1\n      tag_40\n      jump\t// in\n    tag_38:\n        /* \"Contract.sol\":1876:1882  amount */\n      dup1\n        /* \"Contract.sol\":1851:1872  address(this).balance */\n      selfbalance\n        /* \"Contract.sol\":1851:1882  address(this).balance >= amount */\n      lt\n      iszero\n        /* \"Contract.sol\":1843:1920  require(address(this).balance >= amount, \"Saldo insuficiente en el contrato\") */\n      tag_41\n      jumpi\n      mload(0x40)\n      shl(0xe5, 0x461bcd)\n      dup2\n      mstore\n      0x04\n      add\n      tag_35\n      swap1\n      tag_43\n      jump\t// in\n    tag_41:\n        /* \"Contract.sol\":1960:1968  accountB */\n      sload(0x01)\n        /* \"Contract.sol\":1952:1993  payable(accountB).call{value: amount}(\"\") */\n      mload(0x40)\n        /* \"Contract.sol\":1934:1946  bool success */\n      0x00\n      swap2\n      sub(shl(0xa0, 0x01), 0x01)\n        /* \"Contract.sol\":1960:1968  accountB */\n      and\n      swap1\n        /* \"Contract.sol\":1982:1988  amount */\n      dup4\n      swap1\n        /* \"Contract.sol\":1952:1993  payable(accountB).call{value: amount}(\"\") */\n      tag_44\n      swap1\n      tag_45\n      jump\t// in\n    tag_44:\n      0x00\n      mload(0x40)\n      dup1\n      dup4\n      sub\n      dup2\n      dup6\n      dup8\n      gas\n      call\n      swap3\n      pop\n      pop\n      pop\n      returndatasize\n      dup1\n      0x00\n      dup2\n      eq\n      tag_48\n      jumpi\n      mload(0x40)\n      swap2\n      pop\n      and(add(returndatasize, 0x3f), not(0x1f))\n      dup3\n      add\n      0x40\n      mstore\n      returndatasize\n      dup3\n      mstore\n      returndatasize\n      0x00\n      0x20\n      dup5\n      add\n      returndatacopy\n      jump(tag_47)\n    tag_48:\n      0x60\n      swap2\n      pop\n    tag_47:\n      pop\n        /* \"Contract.sol\":1933:1993  (bool success, ) = payable(accountB).call{value: amount}(\"\") */\n      pop\n      swap1\n      pop\n        /* \"Contract.sol\":2012:2019  success */\n      dup1\n        /* \"Contract.sol\":2004:2039  require(success, \"El retiro fallo\") */\n      tag_49\n      jumpi\n      mload(0x40)\n      shl(0xe5, 0x461bcd)\n      dup2\n      mstore\n      0x04\n      add\n      tag_35\n      swap1\n      tag_51\n      jump\t// in\n    tag_49:\n        /* \"Contract.sol\":2068:2076  accountB */\n      sload(0x01)\n        /* \"Contract.sol\":2057:2085  Withdrawal(accountB, amount) */\n      mload(0x40)\n      sub(shl(0xa0, 0x01), 0x01)\n        /* \"Contract.sol\":2068:2076  accountB */\n      swap1\n      swap2\n      and\n      swap1\n        /* \"Contract.sol\":2057:2085  Withdrawal(accountB, amount) */\n      0x7fcf532c15f0a6db0bd6d0e038bea71d30d808c7d98cb3bf7268a95bf5081b65\n      swap1\n      tag_52\n      swap1\n        /* \"Contract.sol\":2078:2084  amount */\n      dup6\n      swap1\n        /* \"Contract.sol\":2057:2085  Withdrawal(accountB, amount) */\n      tag_26\n      jump\t// in\n    tag_52:\n      mload(0x40)\n      dup1\n      swap2\n      sub\n      swap1\n      log2\n        /* \"Contract.sol\":671:672  _ */\n      pop\n        /* \"Contract.sol\":1715:2093  function withdraw(uint256 amount) external onlyAccountB {\r... */\n      pop\n      jump\t// out\n        /* \"Contract.sol\":1304:1707  function transferToAccountB(uint256 amount) external onlyAccountA {\r... */\n    tag_21:\n        /* \"Contract.sol\":457:465  accountA */\n      and(sub(shl(0xa0, 0x01), 0x01), sload(0x00))\n        /* \"Contract.sol\":443:453  msg.sender */\n      caller\n        /* \"Contract.sol\":443:465  msg.sender == accountA */\n      eq\n        /* \"Contract.sol\":435:516  require(msg.sender == accountA, \"Solo la cuenta A puede realizar esta operacion\") */\n      tag_54\n      jumpi\n      mload(0x40)\n      shl(0xe5, 0x461bcd)\n      dup2\n      mstore\n      0x04\n      add\n      tag_35\n      swap1\n      tag_56\n      jump\t// in\n    tag_54:\n        /* \"Contract.sol\":1398:1399  0 */\n      0x00\n        /* \"Contract.sol\":1389:1395  amount */\n      dup2\n        /* \"Contract.sol\":1389:1399  amount > 0 */\n      gt\n        /* \"Contract.sol\":1381:1431  require(amount > 0, \"El monto debe ser mayor a 0\") */\n      tag_58\n      jumpi\n      mload(0x40)\n      shl(0xe5, 0x461bcd)\n      dup2\n      mstore\n      0x04\n      add\n      tag_35\n      swap1\n      tag_40\n      jump\t// in\n    tag_58:\n        /* \"Contract.sol\":1475:1481  amount */\n      dup1\n        /* \"Contract.sol\":1450:1471  address(this).balance */\n      selfbalance\n        /* \"Contract.sol\":1450:1481  address(this).balance >= amount */\n      lt\n      iszero\n        /* \"Contract.sol\":1442:1519  require(address(this).balance >= amount, \"Saldo insuficiente en el contrato\") */\n      tag_60\n      jumpi\n      mload(0x40)\n      shl(0xe5, 0x461bcd)\n      dup2\n      mstore\n      0x04\n      add\n      tag_35\n      swap1\n      tag_43\n      jump\t// in\n    tag_60:\n        /* \"Contract.sol\":1559:1567  accountB */\n      sload(0x01)\n        /* \"Contract.sol\":1551:1592  payable(accountB).call{value: amount}(\"\") */\n      mload(0x40)\n        /* \"Contract.sol\":1533:1545  bool success */\n      0x00\n      swap2\n      sub(shl(0xa0, 0x01), 0x01)\n        /* \"Contract.sol\":1559:1567  accountB */\n      and\n      swap1\n        /* \"Contract.sol\":1581:1587  amount */\n      dup4\n      swap1\n        /* \"Contract.sol\":1551:1592  payable(accountB).call{value: amount}(\"\") */\n      tag_62\n      swap1\n      tag_45\n      jump\t// in\n    tag_62:\n      0x00\n      mload(0x40)\n      dup1\n      dup4\n      sub\n      dup2\n      dup6\n      dup8\n      gas\n      call\n      swap3\n      pop\n      pop\n      pop\n      returndatasize\n      dup1\n      0x00\n      dup2\n      eq\n      tag_65\n      jumpi\n      mload(0x40)\n      swap2\n      pop\n      and(add(returndatasize, 0x3f), not(0x1f))\n      dup3\n      add\n      0x40\n      mstore\n      returndatasize\n      dup3\n      mstore\n      returndatasize\n      0x00\n      0x20\n      dup5\n      add\n      returndatacopy\n      jump(tag_64)\n    tag_65:\n      0x60\n      swap2\n      pop\n    tag_64:\n      pop\n        /* \"Contract.sol\":1532:1592  (bool success, ) = payable(accountB).call{value: amount}(\"\") */\n      pop\n      swap1\n      pop\n        /* \"Contract.sol\":1611:1618  success */\n      dup1\n        /* \"Contract.sol\":1603:1645  require(success, \"La transferencia fallo\") */\n      tag_66\n      jumpi\n      mload(0x40)\n      shl(0xe5, 0x461bcd)\n      dup2\n      mstore\n      0x04\n      add\n      tag_35\n      swap1\n      tag_68\n      jump\t// in\n    tag_66:\n        /* \"Contract.sol\":1682:1690  accountB */\n      sload(0x01)\n      0x00\n        /* \"Contract.sol\":1672:1680  accountA */\n      sload\n        /* \"Contract.sol\":1663:1699  Transfer(accountA, accountB, amount) */\n      mload(0x40)\n      sub(shl(0xa0, 0x01), 0x01)\n        /* \"Contract.sol\":1682:1690  accountB */\n      swap3\n      dup4\n      and\n      swap3\n        /* \"Contract.sol\":1672:1680  accountA */\n      swap1\n      swap2\n      and\n      swap1\n        /* \"Contract.sol\":1663:1699  Transfer(accountA, accountB, amount) */\n      0xddf252ad1be2c89b69c2b068fc378daa952ba7f163c4a11628f55a4df523b3ef\n      swap1\n      tag_69\n      swap1\n        /* \"Contract.sol\":1692:1698  amount */\n      dup7\n      swap1\n        /* \"Contract.sol\":1663:1699  Transfer(accountA, accountB, amount) */\n      tag_26\n      jump\t// in\n    tag_69:\n      mload(0x40)\n      dup1\n      swap2\n      sub\n      swap1\n      log3\n        /* \"Contract.sol\":527:528  _ */\n      pop\n        /* \"Contract.sol\":1304:1707  function transferToAccountB(uint256 amount) external onlyAccountA {\r... */\n      pop\n      jump\t// out\n        /* \"Contract.sol\":2101:2210  function getContractBalance() external view returns (uint256) {\r... */\n    tag_24:\n        /* \"Contract.sol\":2181:2202  address(this).balance */\n      selfbalance\n        /* \"Contract.sol\":2101:2210  function getContractBalance() external view returns (uint256) {\r... */\n      swap1\n      jump\t// out\n        /* \"Contract.sol\":1131:1296  function deposit() external payable {\r... */\n    tag_28:\n        /* \"Contract.sol\":1198:1199  0 */\n      0x00\n        /* \"Contract.sol\":1186:1195  msg.value */\n      callvalue\n        /* \"Contract.sol\":1186:1199  msg.value > 0 */\n      gt\n        /* \"Contract.sol\":1178:1242  require(msg.value > 0, \"Debe enviar un monto positivo de Ether\") */\n      tag_72\n      jumpi\n      mload(0x40)\n      shl(0xe5, 0x461bcd)\n      dup2\n      mstore\n      0x04\n      add\n      tag_35\n      swap1\n      tag_74\n      jump\t// in\n    tag_72:\n        /* \"Contract.sol\":1266:1276  msg.sender */\n      caller\n      sub(shl(0xa0, 0x01), 0x01)\n        /* \"Contract.sol\":1258:1288  Deposit(msg.sender, msg.value) */\n      and\n      0xe1fffcc4923d04b559f4d29a8bfc6cda04eb5b0d3c460751c2402c5c5cc9109c\n        /* \"Contract.sol\":1278:1287  msg.value */\n      callvalue\n        /* \"Contract.sol\":1258:1288  Deposit(msg.sender, msg.value) */\n      mload(0x40)\n      tag_75\n      swap2\n      swap1\n      tag_26\n      jump\t// in\n    tag_75:\n      mload(0x40)\n      dup1\n      swap2\n      sub\n      swap1\n      log2\n        /* \"Contract.sol\":1131:1296  function deposit() external payable {\r... */\n      jump\t// out\n        /* \"Contract.sol\":143:166  address public accountB */\n    tag_31:\n      and(sub(shl(0xa0, 0x01), 0x01), sload(0x01))\n      dup2\n      jump\t// out\n        /* \"#utility.yul\":14:204   */\n    tag_16:\n      0x00\n        /* \"#utility.yul\":126:128   */\n      0x20\n        /* \"#utility.yul\":114:123   */\n      dup3\n        /* \"#utility.yul\":105:112   */\n      dup5\n        /* \"#utility.yul\":101:124   */\n      sub\n        /* \"#utility.yul\":97:129   */\n      slt\n        /* \"#utility.yul\":94:96   */\n      iszero\n      tag_78\n      jumpi\n        /* \"#utility.yul\":147:153   */\n      dup1\n        /* \"#utility.yul\":139:145   */\n      dup2\n        /* \"#utility.yul\":132:154   */\n      revert\n        /* \"#utility.yul\":94:96   */\n    tag_78:\n      pop\n        /* \"#utility.yul\":175:198   */\n      calldataload\n      swap2\n        /* \"#utility.yul\":84:204   */\n      swap1\n      pop\n      jump\t// out\n        /* \"#utility.yul\":209:414   */\n    tag_45:\n        /* \"#utility.yul\":409:412   */\n      swap1\n        /* \"#utility.yul\":400:414   */\n      jump\t// out\n        /* \"#utility.yul\":419:622   */\n    tag_12:\n      sub(shl(0xa0, 0x01), 0x01)\n        /* \"#utility.yul\":583:615   */\n      swap2\n      swap1\n      swap2\n      and\n        /* \"#utility.yul\":565:616   */\n      dup2\n      mstore\n        /* \"#utility.yul\":553:555   */\n      0x20\n        /* \"#utility.yul\":538:556   */\n      add\n      swap1\n        /* \"#utility.yul\":520:622   */\n      jump\t// out\n        /* \"#utility.yul\":627:1037   */\n    tag_56:\n        /* \"#utility.yul\":829:831   */\n      0x20\n        /* \"#utility.yul\":811:832   */\n      dup1\n      dup3\n      mstore\n        /* \"#utility.yul\":868:870   */\n      0x2e\n        /* \"#utility.yul\":848:866   */\n      swap1\n      dup3\n      add\n        /* \"#utility.yul\":841:871   */\n      mstore\n        /* \"#utility.yul\":907:941   */\n      0x536f6c6f206c61206375656e74612041207075656465207265616c697a617220\n        /* \"#utility.yul\":902:904   */\n      0x40\n        /* \"#utility.yul\":887:905   */\n      dup3\n      add\n        /* \"#utility.yul\":880:942   */\n      mstore\n      shl(0x91, 0x32b9ba309037b832b930b1b4b7b7)\n        /* \"#utility.yul\":973:975   */\n      0x60\n        /* \"#utility.yul\":958:976   */\n      dup3\n      add\n        /* \"#utility.yul\":951:995   */\n      mstore\n        /* \"#utility.yul\":1027:1030   */\n      0x80\n        /* \"#utility.yul\":1012:1031   */\n      add\n      swap1\n        /* \"#utility.yul\":801:1037   */\n      jump\t// out\n        /* \"#utility.yul\":1042:1439   */\n    tag_43:\n        /* \"#utility.yul\":1244:1246   */\n      0x20\n        /* \"#utility.yul\":1226:1247   */\n      dup1\n      dup3\n      mstore\n        /* \"#utility.yul\":1283:1285   */\n      0x21\n        /* \"#utility.yul\":1263:1281   */\n      swap1\n      dup3\n      add\n        /* \"#utility.yul\":1256:1286   */\n      mstore\n        /* \"#utility.yul\":1322:1356   */\n      0x53616c646f20696e737566696369656e746520656e20656c20636f6e74726174\n        /* \"#utility.yul\":1317:1319   */\n      0x40\n        /* \"#utility.yul\":1302:1320   */\n      dup3\n      add\n        /* \"#utility.yul\":1295:1357   */\n      mstore\n      shl(0xf8, 0x6f)\n        /* \"#utility.yul\":1388:1390   */\n      0x60\n        /* \"#utility.yul\":1373:1391   */\n      dup3\n      add\n        /* \"#utility.yul\":1366:1397   */\n      mstore\n        /* \"#utility.yul\":1429:1432   */\n      0x80\n        /* \"#utility.yul\":1414:1433   */\n      add\n      swap1\n        /* \"#utility.yul\":1216:1439   */\n      jump\t// out\n        /* \"#utility.yul\":1444:1854   */\n    tag_36:\n        /* \"#utility.yul\":1646:1648   */\n      0x20\n        /* \"#utility.yul\":1628:1649   */\n      dup1\n      dup3\n      mstore\n        /* \"#utility.yul\":1685:1687   */\n      0x2e\n        /* \"#utility.yul\":1665:1683   */\n      swap1\n      dup3\n      add\n        /* \"#utility.yul\":1658:1688   */\n      mstore\n        /* \"#utility.yul\":1724:1758   */\n      0x536f6c6f206c61206375656e74612042207075656465207265616c697a617220\n        /* \"#utility.yul\":1719:1721   */\n      0x40\n        /* \"#utility.yul\":1704:1722   */\n      dup3\n      add\n        /* \"#utility.yul\":1697:1759   */\n      mstore\n      shl(0x91, 0x32b9ba309037b832b930b1b4b7b7)\n        /* \"#utility.yul\":1790:1792   */\n      0x60\n        /* \"#utility.yul\":1775:1793   */\n      dup3\n      add\n        /* \"#utility.yul\":1768:1812   */\n      mstore\n        /* \"#utility.yul\":1844:1847   */\n      0x80\n        /* \"#utility.yul\":1829:1848   */\n      add\n      swap1\n        /* \"#utility.yul\":1618:1854   */\n      jump\t// out\n        /* \"#utility.yul\":1859:2261   */\n    tag_74:\n        /* \"#utility.yul\":2061:2063   */\n      0x20\n        /* \"#utility.yul\":2043:2064   */\n      dup1\n      dup3\n      mstore\n        /* \"#utility.yul\":2100:2102   */\n      0x26\n        /* \"#utility.yul\":2080:2098   */\n      swap1\n      dup3\n      add\n        /* \"#utility.yul\":2073:2103   */\n      mstore\n        /* \"#utility.yul\":2139:2173   */\n      0x4465626520656e7669617220756e206d6f6e746f20706f73697469766f206465\n        /* \"#utility.yul\":2134:2136   */\n      0x40\n        /* \"#utility.yul\":2119:2137   */\n      dup3\n      add\n        /* \"#utility.yul\":2112:2174   */\n      mstore\n      shl(0xd1, 0x1022ba3432b9)\n        /* \"#utility.yul\":2205:2207   */\n      0x60\n        /* \"#utility.yul\":2190:2208   */\n      dup3\n      add\n        /* \"#utility.yul\":2183:2219   */\n      mstore\n        /* \"#utility.yul\":2251:2254   */\n      0x80\n        /* \"#utility.yul\":2236:2255   */\n      add\n      swap1\n        /* \"#utility.yul\":2033:2261   */\n      jump\t// out\n        /* \"#utility.yul\":2266:2617   */\n    tag_40:\n        /* \"#utility.yul\":2468:2470   */\n      0x20\n        /* \"#utility.yul\":2450:2471   */\n      dup1\n      dup3\n      mstore\n        /* \"#utility.yul\":2507:2509   */\n      0x1b\n        /* \"#utility.yul\":2487:2505   */\n      swap1\n      dup3\n      add\n        /* \"#utility.yul\":2480:2510   */\n      mstore\n        /* \"#utility.yul\":2546:2575   */\n      0x456c206d6f6e746f206465626520736572206d61796f72206120300000000000\n        /* \"#utility.yul\":2541:2543   */\n      0x40\n        /* \"#utility.yul\":2526:2544   */\n      dup3\n      add\n        /* \"#utility.yul\":2519:2576   */\n      mstore\n        /* \"#utility.yul\":2608:2610   */\n      0x60\n        /* \"#utility.yul\":2593:2611   */\n      add\n      swap1\n        /* \"#utility.yul\":2440:2617   */\n      jump\t// out\n        /* \"#utility.yul\":2622:2968   */\n    tag_68:\n        /* \"#utility.yul\":2824:2826   */\n      0x20\n        /* \"#utility.yul\":2806:2827   */\n      dup1\n      dup3\n      mstore\n        /* \"#utility.yul\":2863:2865   */\n      0x16\n        /* \"#utility.yul\":2843:2861   */\n      swap1\n      dup3\n      add\n        /* \"#utility.yul\":2836:2866   */\n      mstore\n      shl(0x50, 0x4c61207472616e73666572656e6369612066616c6c6f)\n        /* \"#utility.yul\":2897:2899   */\n      0x40\n        /* \"#utility.yul\":2882:2900   */\n      dup3\n      add\n        /* \"#utility.yul\":2875:2927   */\n      mstore\n        /* \"#utility.yul\":2959:2961   */\n      0x60\n        /* \"#utility.yul\":2944:2962   */\n      add\n      swap1\n        /* \"#utility.yul\":2796:2968   */\n      jump\t// out\n        /* \"#utility.yul\":2973:3312   */\n    tag_51:\n        /* \"#utility.yul\":3175:3177   */\n      0x20\n        /* \"#utility.yul\":3157:3178   */\n      dup1\n      dup3\n      mstore\n        /* \"#utility.yul\":3214:3216   */\n      0x0f\n        /* \"#utility.yul\":3194:3212   */\n      swap1\n      dup3\n      add\n        /* \"#utility.yul\":3187:3217   */\n      mstore\n      shl(0x88, 0x456c2072657469726f2066616c6c6f)\n        /* \"#utility.yul\":3248:3250   */\n      0x40\n        /* \"#utility.yul\":3233:3251   */\n      dup3\n      add\n        /* \"#utility.yul\":3226:3271   */\n      mstore\n        /* \"#utility.yul\":3303:3305   */\n      0x60\n        /* \"#utility.yul\":3288:3306   */\n      add\n      swap1\n        /* \"#utility.yul\":3147:3312   */\n      jump\t// out\n        /* \"#utility.yul\":3317:3494   */\n    tag_26:\n        /* \"#utility.yul\":3463:3488   */\n      swap1\n      dup2\n      mstore\n        /* \"#utility.yul\":3451:3453   */\n      0x20\n        /* \"#utility.yul\":3436:3454   */\n      add\n      swap1\n        /* \"#utility.yul\":3418:3494   */\n      jump\t// out\n\n    auxdata: 0xa2646970667358221220651037d1b90c58dfce0936153854cc75d527e94c4348abf0b3d18502c4750c9d64736f6c63430008000033\n}\n",
				"bytecode": {
					"linkReferences": {},
					"object": "608060405260405161087438038061087483398101604081905261002291610124565b6001600160a01b0382166100515760405162461bcd60e51b8152600401610048906101ea565b60405180910390fd5b6001600160a01b0381166100775760405162461bcd60e51b815260040161004890610156565b600034116100975760405162461bcd60e51b8152600401610048906101a0565b600080546001600160a01b038085166001600160a01b031992831617909255600180549284169290911691909117905560405133907fe1fffcc4923d04b559f4d29a8bfc6cda04eb5b0d3c460751c2402c5c5cc9109c906100f9903490610234565b60405180910390a2505061023d565b80516001600160a01b038116811461011f57600080fd5b919050565b60008060408385031215610136578182fd5b61013f83610108565b915061014d60208401610108565b90509250929050565b6020808252602a908201527f4c61206375656e74612042206e6f20707565646520736572206c6120646972656040820152696363696f6e206365726f60b01b606082015260800190565b6020808252602a908201527f4465626520656e7669617220457468657220616c20646573706c6567617220656040820152696c20636f6e747261746f60b01b606082015260800190565b6020808252602a908201527f4c61206375656e74612041206e6f20707565646520736572206c6120646972656040820152696363696f6e206365726f60b01b606082015260800190565b90815260200190565b6106288061024c6000396000f3fe6080604052600436106100555760003560e01c806306867f7d1461005a5780632e1a7d4d1461008557806361a5c7ea146100a75780636f9fb98a146100c7578063d0e30db0146100e9578063ecb6af21146100f1575b600080fd5b34801561006657600080fd5b5061006f610106565b60405161007c9190610422565b60405180910390f35b34801561009157600080fd5b506100a56100a0366004610407565b610115565b005b3480156100b357600080fd5b506100a56100c2366004610407565b610254565b3480156100d357600080fd5b506100dc610391565b60405161007c91906105e9565b6100a5610395565b3480156100fd57600080fd5b5061006f6103f8565b6000546001600160a01b031681565b6001546001600160a01b031633146101485760405162461bcd60e51b815260040161013f906104c5565b60405180910390fd5b600081116101685760405162461bcd60e51b815260040161013f90610559565b804710156101885760405162461bcd60e51b815260040161013f90610484565b6001546040516000916001600160a01b03169083906101a69061041f565b60006040518083038185875af1925050503d80600081146101e3576040519150601f19603f3d011682016040523d82523d6000602084013e6101e8565b606091505b50509050806102095760405162461bcd60e51b815260040161013f906105c0565b6001546040516001600160a01b03909116907f7fcf532c15f0a6db0bd6d0e038bea71d30d808c7d98cb3bf7268a95bf5081b65906102489085906105e9565b60405180910390a25050565b6000546001600160a01b0316331461027e5760405162461bcd60e51b815260040161013f90610436565b6000811161029e5760405162461bcd60e51b815260040161013f90610559565b804710156102be5760405162461bcd60e51b815260040161013f90610484565b6001546040516000916001600160a01b03169083906102dc9061041f565b60006040518083038185875af1925050503d8060008114610319576040519150601f19603f3d011682016040523d82523d6000602084013e61031e565b606091505b505090508061033f5760405162461bcd60e51b815260040161013f90610590565b6001546000546040516001600160a01b0392831692909116907fddf252ad1be2c89b69c2b068fc378daa952ba7f163c4a11628f55a4df523b3ef906103859086906105e9565b60405180910390a35050565b4790565b600034116103b55760405162461bcd60e51b815260040161013f90610513565b336001600160a01b03167fe1fffcc4923d04b559f4d29a8bfc6cda04eb5b0d3c460751c2402c5c5cc9109c346040516103ee91906105e9565b60405180910390a2565b6001546001600160a01b031681565b600060208284031215610418578081fd5b5035919050565b90565b6001600160a01b0391909116815260200190565b6020808252602e908201527f536f6c6f206c61206375656e74612041207075656465207265616c697a61722060408201526d32b9ba309037b832b930b1b4b7b760911b606082015260800190565b60208082526021908201527f53616c646f20696e737566696369656e746520656e20656c20636f6e747261746040820152606f60f81b606082015260800190565b6020808252602e908201527f536f6c6f206c61206375656e74612042207075656465207265616c697a61722060408201526d32b9ba309037b832b930b1b4b7b760911b606082015260800190565b60208082526026908201527f4465626520656e7669617220756e206d6f6e746f20706f73697469766f2064656040820152651022ba3432b960d11b606082015260800190565b6020808252601b908201527f456c206d6f6e746f206465626520736572206d61796f72206120300000000000604082015260600190565b6020808252601690820152754c61207472616e73666572656e6369612066616c6c6f60501b604082015260600190565b6020808252600f908201526e456c2072657469726f2066616c6c6f60881b604082015260600190565b9081526020019056fea2646970667358221220651037d1b90c58dfce0936153854cc75d527e94c4348abf0b3d18502c4750c9d64736f6c63430008000033",
					"opcodes": "PUSH1 0x80 PUSH1 0x40 MSTORE PUSH1 0x40 MLOAD PUSH2 0x874 CODESIZE SUB DUP1 PUSH2 0x874 DUP4 CODECOPY DUP2 ADD PUSH1 0x40 DUP2 SWAP1 MSTORE PUSH2 0x22 SWAP2 PUSH2 0x124 JUMP JUMPDEST PUSH1 0x1 PUSH1 0x1 PUSH1 0xA0 SHL SUB DUP3 AND PUSH2 0x51 JUMPI PUSH1 0x40 MLOAD PUSH3 0x461BCD PUSH1 0xE5 SHL DUP2 MSTORE PUSH1 0x4 ADD PUSH2 0x48 SWAP1 PUSH2 0x1EA JUMP JUMPDEST PUSH1 0x40 MLOAD DUP1 SWAP2 SUB SWAP1 REVERT JUMPDEST PUSH1 0x1 PUSH1 0x1 PUSH1 0xA0 SHL SUB DUP2 AND PUSH2 0x77 JUMPI PUSH1 0x40 MLOAD PUSH3 0x461BCD PUSH1 0xE5 SHL DUP2 MSTORE PUSH1 0x4 ADD PUSH2 0x48 SWAP1 PUSH2 0x156 JUMP JUMPDEST PUSH1 0x0 CALLVALUE GT PUSH2 0x97 JUMPI PUSH1 0x40 MLOAD PUSH3 0x461BCD PUSH1 0xE5 SHL DUP2 MSTORE PUSH1 0x4 ADD PUSH2 0x48 SWAP1 PUSH2 0x1A0 JUMP JUMPDEST PUSH1 0x0 DUP1 SLOAD PUSH1 0x1 PUSH1 0x1 PUSH1 0xA0 SHL SUB DUP1 DUP6 AND PUSH1 0x1 PUSH1 0x1 PUSH1 0xA0 SHL SUB NOT SWAP3 DUP4 AND OR SWAP1 SWAP3 SSTORE PUSH1 0x1 DUP1 SLOAD SWAP3 DUP5 AND SWAP3 SWAP1 SWAP2 AND SWAP2 SWAP1 SWAP2 OR SWAP1 SSTORE PUSH1 0x40 MLOAD CALLER SWAP1 PUSH32 0xE1FFFCC4923D04B559F4D29A8BFC6CDA04EB5B0D3C460751C2402C5C5CC9109C SWAP1 PUSH2 0xF9 SWAP1 CALLVALUE SWAP1 PUSH2 0x234 JUMP JUMPDEST PUSH1 0x40 MLOAD DUP1 SWAP2 SUB SWAP1 LOG2 POP POP PUSH2 0x23D JUMP JUMPDEST DUP1 MLOAD PUSH1 0x1 PUSH1 0x1 PUSH1 0xA0 SHL SUB DUP2 AND DUP2 EQ PUSH2 0x11F JUMPI PUSH1 0x0 DUP1 REVERT JUMPDEST SWAP2 SWAP1 POP JUMP JUMPDEST PUSH1 0x0 DUP1 PUSH1 0x40 DUP4 DUP6 SUB SLT ISZERO PUSH2 0x136 JUMPI DUP2 DUP3 REVERT JUMPDEST PUSH2 0x13F DUP4 PUSH2 0x108 JUMP JUMPDEST SWAP2 POP PUSH2 0x14D PUSH1 0x20 DUP5 ADD PUSH2 0x108 JUMP JUMPDEST SWAP1 POP SWAP3 POP SWAP3 SWAP1 POP JUMP JUMPDEST PUSH1 0x20 DUP1 DUP3 MSTORE PUSH1 0x2A SWAP1 DUP3 ADD MSTORE PUSH32 0x4C61206375656E74612042206E6F20707565646520736572206C612064697265 PUSH1 0x40 DUP3 ADD MSTORE PUSH10 0x6363696F6E206365726F PUSH1 0xB0 SHL PUSH1 0x60 DUP3 ADD MSTORE PUSH1 0x80 ADD SWAP1 JUMP JUMPDEST PUSH1 0x20 DUP1 DUP3 MSTORE PUSH1 0x2A SWAP1 DUP3 ADD MSTORE PUSH32 0x4465626520656E7669617220457468657220616C20646573706C656761722065 PUSH1 0x40 DUP3 ADD MSTORE PUSH10 0x6C20636F6E747261746F PUSH1 0xB0 SHL PUSH1 0x60 DUP3 ADD MSTORE PUSH1 0x80 ADD SWAP1 JUMP JUMPDEST PUSH1 0x20 DUP1 DUP3 MSTORE PUSH1 0x2A SWAP1 DUP3 ADD MSTORE PUSH32 0x4C61206375656E74612041206E6F20707565646520736572206C612064697265 PUSH1 0x40 DUP3 ADD MSTORE PUSH10 0x6363696F6E206365726F PUSH1 0xB0 SHL PUSH1 0x60 DUP3 ADD MSTORE PUSH1 0x80 ADD SWAP1 JUMP JUMPDEST SWAP1 DUP2 MSTORE PUSH1 0x20 ADD SWAP1 JUMP JUMPDEST PUSH2 0x628 DUP1 PUSH2 0x24C PUSH1 0x0 CODECOPY PUSH1 0x0 RETURN INVALID PUSH1 0x80 PUSH1 0x40 MSTORE PUSH1 0x4 CALLDATASIZE LT PUSH2 0x55 JUMPI PUSH1 0x0 CALLDATALOAD PUSH1 0xE0 SHR DUP1 PUSH4 0x6867F7D EQ PUSH2 0x5A JUMPI DUP1 PUSH4 0x2E1A7D4D EQ PUSH2 0x85 JUMPI DUP1 PUSH4 0x61A5C7EA EQ PUSH2 0xA7 JUMPI DUP1 PUSH4 0x6F9FB98A EQ PUSH2 0xC7 JUMPI DUP1 PUSH4 0xD0E30DB0 EQ PUSH2 0xE9 JUMPI DUP1 PUSH4 0xECB6AF21 EQ PUSH2 0xF1 JUMPI JUMPDEST PUSH1 0x0 DUP1 REVERT JUMPDEST CALLVALUE DUP1 ISZERO PUSH2 0x66 JUMPI PUSH1 0x0 DUP1 REVERT JUMPDEST POP PUSH2 0x6F PUSH2 0x106 JUMP JUMPDEST PUSH1 0x40 MLOAD PUSH2 0x7C SWAP2 SWAP1 PUSH2 0x422 JUMP JUMPDEST PUSH1 0x40 MLOAD DUP1 SWAP2 SUB SWAP1 RETURN JUMPDEST CALLVALUE DUP1 ISZERO PUSH2 0x91 JUMPI PUSH1 0x0 DUP1 REVERT JUMPDEST POP PUSH2 0xA5 PUSH2 0xA0 CALLDATASIZE PUSH1 0x4 PUSH2 0x407 JUMP JUMPDEST PUSH2 0x115 JUMP JUMPDEST STOP JUMPDEST CALLVALUE DUP1 ISZERO PUSH2 0xB3 JUMPI PUSH1 0x0 DUP1 REVERT JUMPDEST POP PUSH2 0xA5 PUSH2 0xC2 CALLDATASIZE PUSH1 0x4 PUSH2 0x407 JUMP JUMPDEST PUSH2 0x254 JUMP JUMPDEST CALLVALUE DUP1 ISZERO PUSH2 0xD3 JUMPI PUSH1 0x0 DUP1 REVERT JUMPDEST POP PUSH2 0xDC PUSH2 0x391 JUMP JUMPDEST PUSH1 0x40 MLOAD PUSH2 0x7C SWAP2 SWAP1 PUSH2 0x5E9 JUMP JUMPDEST PUSH2 0xA5 PUSH2 0x395 JUMP JUMPDEST CALLVALUE DUP1 ISZERO PUSH2 0xFD JUMPI PUSH1 0x0 DUP1 REVERT JUMPDEST POP PUSH2 0x6F PUSH2 0x3F8 JUMP JUMPDEST PUSH1 0x0 SLOAD PUSH1 0x1 PUSH1 0x1 PUSH1 0xA0 SHL SUB AND DUP2 JUMP JUMPDEST PUSH1 0x1 SLOAD PUSH1 0x1 PUSH1 0x1 PUSH1 0xA0 SHL SUB AND CALLER EQ PUSH2 0x148 JUMPI PUSH1 0x40 MLOAD PUSH3 0x461BCD PUSH1 0xE5 SHL DUP2 MSTORE PUSH1 0x4 ADD PUSH2 0x13F SWAP1 PUSH2 0x4C5 JUMP JUMPDEST PUSH1 0x40 MLOAD DUP1 SWAP2 SUB SWAP1 REVERT JUMPDEST PUSH1 0x0 DUP2 GT PUSH2 0x168 JUMPI PUSH1 0x40 MLOAD PUSH3 0x461BCD PUSH1 0xE5 SHL DUP2 MSTORE PUSH1 0x4 ADD PUSH2 0x13F SWAP1 PUSH2 0x559 JUMP JUMPDEST DUP1 SELFBALANCE LT ISZERO PUSH2 0x188 JUMPI PUSH1 0x40 MLOAD PUSH3 0x461BCD PUSH1 0xE5 SHL DUP2 MSTORE PUSH1 0x4 ADD PUSH2 0x13F SWAP1 PUSH2 0x484 JUMP JUMPDEST PUSH1 0x1 SLOAD PUSH1 0x40 MLOAD PUSH1 0x0 SWAP2 PUSH1 0x1 PUSH1 0x1 PUSH1 0xA0 SHL SUB AND SWAP1 DUP4 SWAP1 PUSH2 0x1A6 SWAP1 PUSH2 0x41F JUMP JUMPDEST PUSH1 0x0 PUSH1 0x40 MLOAD DUP1 DUP4 SUB DUP2 DUP6 DUP8 GAS CALL SWAP3 POP POP POP RETURNDATASIZE DUP1 PUSH1 0x0 DUP2 EQ PUSH2 0x1E3 JUMPI PUSH1 0x40 MLOAD SWAP2 POP PUSH1 0x1F NOT PUSH1 0x3F RETURNDATASIZE ADD AND DUP3 ADD PUSH1 0x40 MSTORE RETURNDATASIZE DUP3 MSTORE RETURNDATASIZE PUSH1 0x0 PUSH1 0x20 DUP5 ADD RETURNDATACOPY PUSH2 0x1E8 JUMP JUMPDEST PUSH1 0x60 SWAP2 POP JUMPDEST POP POP SWAP1 POP DUP1 PUSH2 0x209 JUMPI PUSH1 0x40 MLOAD PUSH3 0x461BCD PUSH1 0xE5 SHL DUP2 MSTORE PUSH1 0x4 ADD PUSH2 0x13F SWAP1 PUSH2 0x5C0 JUMP JUMPDEST PUSH1 0x1 SLOAD PUSH1 0x40 MLOAD PUSH1 0x1 PUSH1 0x1 PUSH1 0xA0 SHL SUB SWAP1 SWAP2 AND SWAP1 PUSH32 0x7FCF532C15F0A6DB0BD6D0E038BEA71D30D808C7D98CB3BF7268A95BF5081B65 SWAP1 PUSH2 0x248 SWAP1 DUP6 SWAP1 PUSH2 0x5E9 JUMP JUMPDEST PUSH1 0x40 MLOAD DUP1 SWAP2 SUB SWAP1 LOG2 POP POP JUMP JUMPDEST PUSH1 0x0 SLOAD PUSH1 0x1 PUSH1 0x1 PUSH1 0xA0 SHL SUB AND CALLER EQ PUSH2 0x27E JUMPI PUSH1 0x40 MLOAD PUSH3 0x461BCD PUSH1 0xE5 SHL DUP2 MSTORE PUSH1 0x4 ADD PUSH2 0x13F SWAP1 PUSH2 0x436 JUMP JUMPDEST PUSH1 0x0 DUP2 GT PUSH2 0x29E JUMPI PUSH1 0x40 MLOAD PUSH3 0x461BCD PUSH1 0xE5 SHL DUP2 MSTORE PUSH1 0x4 ADD PUSH2 0x13F SWAP1 PUSH2 0x559 JUMP JUMPDEST DUP1 SELFBALANCE LT ISZERO PUSH2 0x2BE JUMPI PUSH1 0x40 MLOAD PUSH3 0x461BCD PUSH1 0xE5 SHL DUP2 MSTORE PUSH1 0x4 ADD PUSH2 0x13F SWAP1 PUSH2 0x484 JUMP JUMPDEST PUSH1 0x1 SLOAD PUSH1 0x40 MLOAD PUSH1 0x0 SWAP2 PUSH1 0x1 PUSH1 0x1 PUSH1 0xA0 SHL SUB AND SWAP1 DUP4 SWAP1 PUSH2 0x2DC SWAP1 PUSH2 0x41F JUMP JUMPDEST PUSH1 0x0 PUSH1 0x40 MLOAD DUP1 DUP4 SUB DUP2 DUP6 DUP8 GAS CALL SWAP3 POP POP POP RETURNDATASIZE DUP1 PUSH1 0x0 DUP2 EQ PUSH2 0x319 JUMPI PUSH1 0x40 MLOAD SWAP2 POP PUSH1 0x1F NOT PUSH1 0x3F RETURNDATASIZE ADD AND DUP3 ADD PUSH1 0x40 MSTORE RETURNDATASIZE DUP3 MSTORE RETURNDATASIZE PUSH1 0x0 PUSH1 0x20 DUP5 ADD RETURNDATACOPY PUSH2 0x31E JUMP JUMPDEST PUSH1 0x60 SWAP2 POP JUMPDEST POP POP SWAP1 POP DUP1 PUSH2 0x33F JUMPI PUSH1 0x40 MLOAD PUSH3 0x461BCD PUSH1 0xE5 SHL DUP2 MSTORE PUSH1 0x4 ADD PUSH2 0x13F SWAP1 PUSH2 0x590 JUMP JUMPDEST PUSH1 0x1 SLOAD PUSH1 0x0 SLOAD PUSH1 0x40 MLOAD PUSH1 0x1 PUSH1 0x1 PUSH1 0xA0 SHL SUB SWAP3 DUP4 AND SWAP3 SWAP1 SWAP2 AND SWAP1 PUSH32 0xDDF252AD1BE2C89B69C2B068FC378DAA952BA7F163C4A11628F55A4DF523B3EF SWAP1 PUSH2 0x385 SWAP1 DUP7 SWAP1 PUSH2 0x5E9 JUMP JUMPDEST PUSH1 0x40 MLOAD DUP1 SWAP2 SUB SWAP1 LOG3 POP POP JUMP JUMPDEST SELFBALANCE SWAP1 JUMP JUMPDEST PUSH1 0x0 CALLVALUE GT PUSH2 0x3B5 JUMPI PUSH1 0x40 MLOAD PUSH3 0x461BCD PUSH1 0xE5 SHL DUP2 MSTORE PUSH1 0x4 ADD PUSH2 0x13F SWAP1 PUSH2 0x513 JUMP JUMPDEST CALLER PUSH1 0x1 PUSH1 0x1 PUSH1 0xA0 SHL SUB AND PUSH32 0xE1FFFCC4923D04B559F4D29A8BFC6CDA04EB5B0D3C460751C2402C5C5CC9109C CALLVALUE PUSH1 0x40 MLOAD PUSH2 0x3EE SWAP2 SWAP1 PUSH2 0x5E9 JUMP JUMPDEST PUSH1 0x40 MLOAD DUP1 SWAP2 SUB SWAP1 LOG2 JUMP JUMPDEST PUSH1 0x1 SLOAD PUSH1 0x1 PUSH1 0x1 PUSH1 0xA0 SHL SUB AND DUP2 JUMP JUMPDEST PUSH1 0x0 PUSH1 0x20 DUP3 DUP5 SUB SLT ISZERO PUSH2 0x418 JUMPI DUP1 DUP2 REVERT JUMPDEST POP CALLDATALOAD SWAP2 SWAP1 POP JUMP JUMPDEST SWAP1 JUMP JUMPDEST PUSH1 0x1 PUSH1 0x1 PUSH1 0xA0 SHL SUB SWAP2 SWAP1 SWAP2 AND DUP2 MSTORE PUSH1 0x20 ADD SWAP1 JUMP JUMPDEST PUSH1 0x20 DUP1 DUP3 MSTORE PUSH1 0x2E SWAP1 DUP3 ADD MSTORE PUSH32 0x536F6C6F206C61206375656E74612041207075656465207265616C697A617220 PUSH1 0x40 DUP3 ADD MSTORE PUSH14 0x32B9BA309037B832B930B1B4B7B7 PUSH1 0x91 SHL PUSH1 0x60 DUP3 ADD MSTORE PUSH1 0x80 ADD SWAP1 JUMP JUMPDEST PUSH1 0x20 DUP1 DUP3 MSTORE PUSH1 0x21 SWAP1 DUP3 ADD MSTORE PUSH32 0x53616C646F20696E737566696369656E746520656E20656C20636F6E74726174 PUSH1 0x40 DUP3 ADD MSTORE PUSH1 0x6F PUSH1 0xF8 SHL PUSH1 0x60 DUP3 ADD MSTORE PUSH1 0x80 ADD SWAP1 JUMP JUMPDEST PUSH1 0x20 DUP1 DUP3 MSTORE PUSH1 0x2E SWAP1 DUP3 ADD MSTORE PUSH32 0x536F6C6F206C61206375656E74612042207075656465207265616C697A617220 PUSH1 0x40 DUP3 ADD MSTORE PUSH14 0x32B9BA309037B832B930B1B4B7B7 PUSH1 0x91 SHL PUSH1 0x60 DUP3 ADD MSTORE PUSH1 0x80 ADD SWAP1 JUMP JUMPDEST PUSH1 0x20 DUP1 DUP3 MSTORE PUSH1 0x26 SWAP1 DUP3 ADD MSTORE PUSH32 0x4465626520656E7669617220756E206D6F6E746F20706F73697469766F206465 PUSH1 0x40 DUP3 ADD MSTORE PUSH6 0x1022BA3432B9 PUSH1 0xD1 SHL PUSH1 0x60 DUP3 ADD MSTORE PUSH1 0x80 ADD SWAP1 JUMP JUMPDEST PUSH1 0x20 DUP1 DUP3 MSTORE PUSH1 0x1B SWAP1 DUP3 ADD MSTORE PUSH32 0x456C206D6F6E746F206465626520736572206D61796F72206120300000000000 PUSH1 0x40 DUP3 ADD MSTORE PUSH1 0x60 ADD SWAP1 JUMP JUMPDEST PUSH1 0x20 DUP1 DUP3 MSTORE PUSH1 0x16 SWAP1 DUP3 ADD MSTORE PUSH22 0x4C61207472616E73666572656E6369612066616C6C6F PUSH1 0x50 SHL PUSH1 0x40 DUP3 ADD MSTORE PUSH1 0x60 ADD SWAP1 JUMP JUMPDEST PUSH1 0x20 DUP1 DUP3 MSTORE PUSH1 0xF SWAP1 DUP3 ADD MSTORE PUSH15 0x456C2072657469726F2066616C6C6F PUSH1 0x88 SHL PUSH1 0x40 DUP3 ADD MSTORE PUSH1 0x60 ADD SWAP1 JUMP JUMPDEST SWAP1 DUP2 MSTORE PUSH1 0x20 ADD SWAP1 JUMP INVALID LOG2 PUSH5 0x6970667358 0x22 SLT KECCAK256 PUSH6 0x1037D1B90C58 0xDF 0xCE MULMOD CALLDATASIZE ISZERO CODESIZE SLOAD 0xCC PUSH22 0xD527E94C4348ABF0B3D18502C4750C9D64736F6C6343 STOP ADDMOD STOP STOP CALLER "
				},
				"gasEstimates": {
					"creation": {
						"codeDepositCost": "315200",
						"executionCost": "infinite",
						"totalCost": "infinite"
					},
					"external": {
						"accountA()": "1048",
						"accountB()": "1158",
						"deposit()": "1692",
						"getContractBalance()": "274",
						"transferToAccountB(uint256)": "infinite",
						"withdraw(uint256)": "infinite"
					}
				},
				"methodIdentifiers": {
					"accountA()": "06867f7d",
					"accountB()": "ecb6af21",
					"deposit()": "d0e30db0",
					"getContractBalance()": "6f9fb98a",
					"transferToAccountB(uint256)": "61a5c7ea",
					"withdraw(uint256)": "2e1a7d4d"
				}
			},
			"storageLayout": {
				"storage": [
					{
						"astId": 3,
						"contract": "Contract.sol:SimpleTransfer",
						"label": "accountA",
						"offset": 0,
						"slot": "0",
						"type": "t_address"
					},
					{
						"astId": 5,
						"contract": "Contract.sol:SimpleTransfer",
						"label": "accountB",
						"offset": 0,
						"slot": "1",
						"type": "t_address"
					}
				],
				"types": {
					"t_address": {
						"encoding": "inplace",
						"label": "address",
						"numberOfBytes": "20"
					}
				}
			},
			"userdoc": {
				"kind": "user",
				"methods": {},
				"version": 1
			}
		}
	}
}